0260727930242332020010100004+47450-122300FM-12+013799999V0201901N008219999999N014000199+01001+00781100811ADDAA106003031GA1999+002501999GE19MSL   +99999+99999GF108991999999002501999999KA1120M+01001KA2120N+00831MA1999999099121MD1610321+9999MW1611OD149901181999REMSYN09872793 11364 81916 10100 20078 39912 40081 56032 60031 761// 92353 333 10100 20083 91023 555 90100=
0309727930242332020010100297+47444-122313FM-16+0132KSEA V0201905N00675002445MN0048285N5+00945+00835999999ADDAA101001731AU110020015AU200001015AW1105AW2615GA1075+002445999GA2085+004275999GD13991+0024459GD24991+0042759GE19MSL   +99999+99999GF199999999999002441999999MA1100755099185MW1615OC101185REMMET11312/31/19 16:29:03 SPECI KSEA 010029Z 19013G23KT 3SM -RA BR BKN008 OVC014 09/08 A2975 RMK AO2 P0007 T00940083 (RS)
0323727930242332020010100537+47444-122313FM-15+0132KSEA V0201705N00825002445MN0096565N5+00945+00785100645ADDAA101002595AU110020015AU200001015AW1105AW2615GA1075+002445999GA2085+004275999GD13991+0024459GD24991+0042759GE19MSL   +99999+99999GF199999999999002441999999MA1100585099015MW1615OC101185REMMET12712/31/19 16:53:03 METAR KSEA 010053Z 17016G23KT 6SM -RA BR BKN008 OVC014 09/08 A2970 RMK AO2 PRESFR SLP064 P0009 T00940078 (RS)
0284727930242332020010101537+47444-122313FM-15+0132KSEA V0201805N00935002445MN0160935N5+00945+00835100595ADDAA101000595AU110020015AW1615GA1085+002445999GD14991+0024459GE19MSL   +99999+99999GF199999999999002441999999MA1100545098985MW1615OC101395REMMET13612/31/19 17:53:03 METAR KSEA 010153Z 18018G27KT 10SM -RA OVC008 09/08 A2969 RMK AO2 PK WND 18027/0151 PRESFR SLP059 P0003 T00940083 (RS)
0366727930242332020010102537+47444-122313FM-15+0132KSEA V0201905N01035001835MN0096565N5+01005+00895100515ADDAA101000395AA203003391AU110020015AU200001015AW1105AW2615GA1085+001835999GD14991+0018359GE19MSL   +99999+99999GF199999999999001831999999MA1100445098875MD1690299+9999MW1615OC101545OD149901591190REMMET14312/31/19 18:53:03 METAR KSEA 010253Z 19020G30KT 6SM -RA BR OVC006 10/09 A2966 RMK AO2 PK WND 19031/0229 SLP051 P0001 60013 T01000089 56029 (RS)EQDQ01  00338PRCP03
0277727930242332020010103537+47444-122313FM-15+0132KSEA V0202105N00775001525MN0160935N5+01005+00895100495ADDAA101000025AU110020015AW1615GA1085+001525999GD14991+0015259GE19MSL   +99999+99999GF199999999999001521999999MA1100415098845MW1615OC101345REMMET12912/31/19 19:53:03 METAR KSEA 010353Z 21015G26KT 10SM -RA OVC005 10/09 A2965 RMK AO2 PK WND 19032/0304 SLP049 P0000 T01000089 (RS)
0259727930242332020010104537+47444-122313FM-15+0132KSEA V0202005N00725001835MN0160935N5+01065+00945100515ADDAA101000025AU110020015AW1615GA1085+001835999GD14991+0018359GE19MSL   +99999+99999GF199999999999001831999999MA1100445098875MW1615OC101295REMMET11112/31/19 20:53:03 METAR KSEA 010453Z 20014G25KT 10SM -RA OVC006 11/09 A2966 RMK AO2 SLP051 P0000 T01060094 (RS)
0366727930242332020010105537+47444-122313FM-15+0132KSEA V0202105N00725002445MN0160935N5+01175+01005100545ADDAA101000095AA206003391GA1085+002445999GD14991+0024459GE19MSL   +99999+99999GF199999999999002441999999KA1060M+01171KA2060N+00941MA1100475098915MD1390029+9999OC101245OD149901641210REMMET15712/31/19 21:53:03 METAR KSEA 010553Z 21014G24KT 10SM OVC008 12/10 A2967 RMK AO2 PK WND 21032/0530 RAE0454 SLP054 P0000 60013 T01170100 10117 20094 53002 (RS)EQDQ01  00338PRCP06
0248727930242332020010106004+47450-122300FM-12+013799999V0202101N007219999999N016000199+01171+01001100541ADDAA106003031GA1999+002501999GE19MSL   +99999+99999GF108991999999002501999999KA1240M+01171KA2240N+00831MA1999999098861MD1310021+9999OD149901241999REMSYN09272793 12366 82114 10117 20100 39886 40054 53002 60031 90553 333 10117 20083 91024 555 90106=
0240727930242332020010106197+47444-122313FM-16+0132KSEA V0202205N00675003055MN0160935N5+01175+01005999999ADDGA1085+003055999GD14991+0030559GE19MSL   +99999+99999GF199999999999003051999999MA1100475098915OC101135OD149901491210REMMET11212/31/19 22:19:03 SPECI KSEA 010619Z 22013G22KT 10SM OVC010 12/10 A2967 RMK AO2 PK WND 21029/0556 T01170100 (TL)
0258727930242332020010106537+47444-122313FM-15+0132KSEA V0202205N00625003665MN0160935N5+01175+00945100525ADDAA101000095GA1085+003665999GD14991+0036659GE19MSL   +99999+99999GF199999999999003661999999MA1100445098875OC101495OD149901491210REMMET11912/31/19 22:53:03 METAR KSEA 010653Z 22012G29KT 10SM OVC012 12/09 A2966 RMK AO2 PK WND 21029/0556 SLP052 T01170094 (TL)
0294727930242332020010107537+47444-122313FM-15+0132KSEA V0202205N00825003965MN0160935N5+01175+00945100535ADDAA101000095GA1085+003965999GD14991+0039659GE19MSL   +99999+99999GF199999999999003961999999KA1240M+01171KA2240N+00781MA1100475098915OC101395OD149901541210REMMET12912/31/19 23:53:03 METAR KSEA 010753Z 22016G27KT 10SM OVC013 12/09 A2967 RMK AO2 PK WND 21030/0725 SLP053 T01170094 401170078 (TL)
0925727930242332020010107596+47444-122313SOD  +0132KSEA V020999999999999999999999999999+99999+99999999999ADDAA124006695AJ100009599999999AL12400095AN1024000095AX1015245KA1240M+01175KA2240N+00785MG1099594100444OE11240165421099995OE22240116219099995OE33240065799999995REMSOD75624 HR PRECIPITATION (IN): 0.26 SNOW DEPTH (IN):0     24 HR SNOWFALL (IN):0.0  WEATHER(CODE):1  24 HR MAX TEMP (F): 5324 HR MIN TEMP (F): 46AVERAGE STATION PRESSURE:29.410 MINIMUM SEA LEVEL PRESSURE:29.66 TIME OF OCCURRENCE:1950 PEAK WIND SPEED (MPH): 37 PEAK WIND DIR (DEG):210 PEAK WIND TIME (LST):      FASTEST 2MIN SPEED (MPH): 26FASTEST 2MIN DIR (DEG):190 FASTEST 2MIN TIME (LST):     AVERAGE WIND SPEED (MPH):14.7 24 HR AVG TEMP (F): 50DEPART FROM NORMAL:  9  HEATING DEGREE DAYS: 15 COOLING DEGREE DAYS:  0 LATEST DAY MAX TEMP (0700-1900 LST):50  LATEST NIGHT MIN TEMP(1900-0800 LST):46 HOURLY INCREMENTAL PRECIPITATION VALUES (IN):.01 0.00 0.00 T    0.00 0.00 0.00 0.00 0.00 T    T    0.04 0.02 0.01 0.04 0.01 0.10 0.02 0.01 T    T    0.00 0.00 0.00
1291727930242332020010107596+47444-122313SOM  +0132KSEA V020999999999999999999999999999+99999+99999999999ADDAB10202296AD10095891920999999996AE1196116045025AH1005001592001175AH2010002892001195AH3015003892006305AH4020004892006365AH5030006692006365AH6045008692006365AI1060010792006365AI2080014292006365AI3100016392006435AI4120018092006475AI5150020892006475AI6180022992006555KB1744N+04835KB2744M+09005KB3744A+06945KC1N9-00112699995KC2M9+01330699995KD1744H06305KD2744C00005KE1005005015005MH1099984101664MK1102883011435100071918405REMSOM795PCP MTOT:7.96 PCP GT 24HRS:3.77 DATE(S):19-20 DAYS W/PCP >=.01:19 DAYS W/PCP >=.10:11 DAYS W/ PCP >=.50:4 DAYS W/PCP >=1.00:2 MSDP AMTS W/DATE-TIME TAGS:MIN:5 0.06  20/0117 MIN:10 0.11  20/0119 MIN:15 0.15  20/0630 MIN:20 0.19  20/0636 MIN:30 0.26  20/0636 MIN:45 0.34  20/0636 MIN:60 0.42  20/0636 MIN:80 0.56  20/0636 MIN:100 0.64  20/0643 MIN:120 0.71  20/0647 MIN:150 0.82  20/0647 MIN:180 0.90  20/0655 AVG DLY MIN:40.7  AVG DLY MAX:48.2  AVG MLY TMP:44.5  MIN TMP:30 DATE(S):26 MAX TMP:56  DATE(S):06 DAYS MAX <=32:0 DAYS MAX >=90:0  DAYS MIN <=32:1  DAYS MIN  <=0:0  AVG STP:29.525 LWST SLP:29.55 DATE/TIME:191840 HGST SLP:30.38 DATE/TIME:301143 HDD MTH TOT:630 DEP NORM:-2553 SEASON(JUL 1-JUN 30):1707 DEP NORM:-25536 CDD MTH TOT:0 DEP NORM:-2553 SEASON(JAN 1-DEC 31):323 DEP NORM:-25536EQDR01  7.967ABP070R02  3.777ADP081R03    197AE1100R04    4 7AE2103
0208727930242332020010108127+47444-122313FM-16+0132KSEA V0202105N00775004575MN0160935N5+01175+00895999999ADDGA1085+004575999GD14991+0045759GE19MSL   +99999+99999GF199999999999004571999999MA1100445098875OC101295REMMET09401/01/20 00:12:02 SPECI KSEA 010812Z 21015G25KT 10SM OVC015 12/09 A2966 RMK AO2 T01170089 (TL)
0278727930242332020010108537+47444-122313FM-15+0132KSEA V0202205N01245004575MN0160935N5+01175+00895100515ADDAA101000095GA1075+004575999GD13991+0045759GE19MSL   +99999+99999GF199999999999004571999999MA1100445098875MD1890029+9999OC101495OD149901491220REMMET12501/01/20 00:53:02 METAR KSEA 010853Z 22024G29KT 10SM BKN015 12/09 A2966 RMK AO2 PK WND 22029/0852 SLP051 T01170089 58002 (TL)
0258727930242332020010109537+47444-122313FM-15+0132KSEA V0202205N00775004575MN0160935N5+01115+00835100565ADDAA101000095GA1085+004575999GD14991+0045759GE19MSL   +99999+99999GF199999999999004571999999MA1100515098945OC101245OD149901491220REMMET11901/01/20 01:53:02 METAR KSEA 010953Z 22015G24KT 10SM OVC015 11/08 A2968 RMK AO2 PK WND 22029/0855 SLP056 T01110083 (TL)
0296727930242332020010110537+47444-122313FM-15+0132KSEA V0202205N00825004575MN0160935N5+01115+00835100515ADDAA101000095GA1075+004575999GA2075+036585999GD13991+0045759GD23991+0365859GE19MSL   +99999+99999GF199999999999004571999999MA1100445098875OC101345OD149901331220REMMET12601/01/20 02:53:02 METAR KSEA 011053Z 22016G26KT 10SM BKN015 BKN120 11/08 A2966 RMK AO2 PK WND 22026/1035 SLP051 T01110083 (TL)
0333727930242332020010111537+47444-122313FM-15+0132KSEA V0202205N00625004575MN0160935N5+01065+00785100575ADDAA101000095AA224006491GA1075+004575999GD13991+0045759GE19MSL   +99999+99999GF199999999999004571999999KA1060M+01171KA2060N+01061MA1100515098945MD1390069+9999OC101135OD149901331210REMMET14301/01/20 03:53:02 METAR KSEA 011153Z 22012G22KT 10SM BKN015 11/08 A2968 RMK AO2 PK WND 21026/1140 SLP057 70025 T01060078 10117 20106 53006 (TL)
0248727930242332020010112004+47450-122300FM-12+013799999V0202201N006219999999N016000199+01061+00781100571ADDAA124006431GA1999+004501999GE19MSL   +99999+99999GF106991999999004501999999KA1240M+01171KA2240N+00941MA1999999098891MD1310061+9999OD149901131999REMSYN09272793 32466 62212 10106 20078 39889 40057 53006 91153 333 10117 20094 70064 91022 555 90112=
0258727930242332020010112537+47444-122313FM-15+0132KSEA V0202305N00675004575MN0160935N5+01065+00785100585ADDAA101000095GA1075+004575999GD13991+0045759GE19MSL   +99999+99999GF199999999999004571999999MA1100515098945OC101135OD149901391210REMMET11901/01/20 04:53:02 METAR KSEA 011253Z 23013G22KT 10SM BKN015 11/08 A2968 RMK AO2 PK WND 21027/1217 SLP058 T01060078 (TL)
0226727930242332020010113537+47444-122313FM-15+0132KSEA V0202105N00725004575MN0160935N5+01005+00725100625ADDAA101000095GA1075+004575999GD13991+0045759GE19MSL   +99999+99999GF199999999999004571999999MA1100545098985OC101035REMMET10101/01/20 05:53:02 METAR KSEA 011353Z 21014G20KT 10SM BKN015 10/07 A2969 RMK AO2 SLP062 T01000072 (JC)
0246727930242332020010114317+47444-122313FM-16+0132KSEA V0202305V00465048775MN0160935N5+01065+00725999999ADDGA1045+004575999GA2075+048775999GD12991+0045759GD23991+0487759GE19MSL   +99999+99999GF199999999999004571999999MA1100615099045OC100885REMMET10101/01/20 06:31:02 SPECI KSEA 011431Z 23009G17KT 10SM SCT015 BKN160 11/07 A2971 RMK AO2 T01060072 (JC)
0322727930242332020010114537+47444-122313FM-15+0132KSEA V0202405N00575021345MN0160935N5+01065+00675100705ADDAA101000095GA1025+004575999GA2075+021345999GA3075+048775999GD11991+0045759GD23991+0213459GD33991+0487759GE19MSL   +99999+99999GF199999999999004571999999MA1100645099085MD1390139+9999OC100935REMMET12101/01/20 06:53:02 METAR KSEA 011453Z 24011G18KT 10SM FEW015 BKN070 BKN160 11/07 A2972 RMK AO2 SLP070 T01060067 53013 (JC)
0280727930242332020010115457+47444-122313FM-16+0132KSEA V0202405N00365004885MN0160935N5+00945+00675999999ADDGA1045+003355999GA2075+004885999GA3085+028965999GD12991+0033559GD23991+0048859GD34991+0289659GE19MSL   +99999+99999GF199999999999003351999999MA1100755099185REMMET11201/01/20 07:45:02 SPECI KSEA 011545Z 24007KT 10SM SCT011 BKN016 OVC095 09/07 A2975 RMK AO2 PRESRR T00940067 (JC)
0253727930242332020010115537+47444-122313FM-15+0132KSEA V0202405N00415003355MN0160935N5+01005+00725100835ADDAA101000095GA1075+003355999GA2085+004885999GD13991+0033559GD24991+0048859GE19MSL   +99999+99999GF199999999999003351999999MA1100755099185REMMET10501/01/20 07:53:02 METAR KSEA 011553Z 24008KT 10SM BKN011 OVC016 10/07 A2975 RMK AO2 SLP083 T01000072 (JC)
0215727930242332020010116537+47444-122313FM-15+0132KSEA V0202405N00315003055MN0160935N5+01005+00725100925ADDAA101000095GA1085+003055999GD14991+0030559GE19MSL   +99999+99999GF199999999999003051999999MA1100855099285REMMET09801/01/20 08:53:02 METAR KSEA 011653Z 24006KT 10SM OVC010 10/07 A2978 RMK AO2 SLP092 T01000072 (JC)
0284727930242332020010117537+47444-122313FM-15+0132KSEA V0202205N00625003965MN0160935N5+01005+00675100975ADDAA101000095GA1075+003965999GD13991+0039659GE19MSL   +99999+99999GF199999999999003961999999KA1060M+01061KA2060N+00941MA1100915099345MD1190279+9999OC100985REMMET11901/01/20 09:53:02 METAR KSEA 011753Z 22012G19KT 10SM BKN013 10/07 A2980 RMK AO2 SLP097 T01000067 10106 20094 51027 (JC)
0231727930242332020010118004+47450-122300FM-12+013799999V0202201N006219999999N016000199+01001+00671100971ADDGA1999+004501999GE19MSL   +99999+99999GF106991999999004501999999KA1120M+01171KA2120N+00941MA1999999099291MD1110271+9999OD149900981999REMSYN08672793 32466 62212 10100 20067 39929 40097 51027 91753 333 10117 20094 91019 555 90118=
0215727930242332020010118537+47444-122313FM-15+0132KSEA V0202105N00675004275MN0160935N5+01005+00725101045ADDAA101000095GA1075+004275999GD13991+0042759GE19MSL   +99999+99999GF199999999999004271999999MA1100985099415REMMET09801/01/20 10:53:02 METAR KSEA 011853Z 21013KT 10SM BKN014 10/07 A2982 RMK AO2 SLP104 T01000072 (JC)
0208727930242332020010119077+47444-122313FM-16+0132KSEA V0202105N00675004575MN0160935N5+01065+00725999999ADDGA1075+004575999GD13991+0045759GE19MSL   +99999+99999GF199999999999004571999999MA1100985099415OC100985REMMET09401/01/20 11:07:02 SPECI KSEA 011907Z 21013G19KT 10SM BKN015 11/07 A2982 RMK AO2 T01060072 (JC)
0226727930242332020010119537+47444-122313FM-15+0132KSEA V0202005N00625004575MN0160935N5+01065+00725101085ADDAA101000095GA1075+004575999GD13991+0045759GE19MSL   +99999+99999GF199999999999004571999999MA1101025099445OC100885REMMET10101/01/20 11:53:02 METAR KSEA 011953Z 20012G17KT 10SM BKN015 11/07 A2983 RMK AO2 SLP108 T01060072 (JC)
0273727930242332020010120537+47444-122313FM-15+0132KSEA V0202205N00465006105MN0160935N5+01115+00675101075ADDAA101000095GA1075+006105999GA2075+030485999GD13991+0061059GD23991+0304859GE19MSL   +99999+99999GF199999999999006101999999MA1101025099445MD1090109+9999REMMET11101/01/20 12:53:02 METAR KSEA 012053Z 22009KT 10SM BKN020 BKN100 11/07 A2983 RMK AO2 SLP107 T01110067 50010 (JC)
0264727930242332020010121537+47444-122313FM-15+0132KSEA V0202105N00725006105MN0160935N5+01115+00675101115ADDAA101000095GA1075+006105999GA2075+033535999GD13991+0061059GD23991+0335359GE19MSL   +99999+99999GF199999999999006101999999MA1101055099485OC101085REMMET10801/01/20 13:53:02 METAR KSEA 012153Z 21014G21KT 10SM BKN020 BKN110 11/07 A2984 RMK AO2 SLP111 T01110067 (RS)
0226727930242332020010122537+47444-122313FM-15+0132KSEA V0202005N00415006105MN0160935N5+01115+00615101175ADDAA101000095GA1075+006105999GD13991+0061059GE19MSL   +99999+99999GF199999999999006101999999MA1101125099545OC101035REMMET10101/01/20 14:53:02 METAR KSEA 012253Z 20008G20KT 10SM BKN020 11/06 A2986 RMK AO2 SLP117 T01110061 (RS)
0322727930242332020010123537+47444-122313FM-15+0132KSEA V0202105N00725005795MN0160935N5+01065+00675101215ADDAA101000095GA1075+005795999GA2075+024385999GD13991+0057959GD23991+0243859GE19MSL   +99999+99999GF199999999999005791999999KA1060M+01171KA2060N+01001MA1101155099585MD1190139+9999OC101035REMMET12601/01/20 15:53:02 METAR KSEA 012353Z 21014G20KT 10SM BKN019 BKN080 11/07 A2987 RMK AO2 SLP121 T01060067 10117 20100 51013 (RS)
0231727930242332020010200004+47450-122300FM-12+013799999V0202101N007219999999N016000199+01061+00671101211ADDGA1999+004501999GE19MSL   +99999+99999GF106991999999004501999999KA1120M+01171KA2120N+01001MA1999999099531MD1110131+9999OD149901031999REMSYN08672793 32466 62114 10106 20067 39953 40121 51013 92353 333 10117 20100 91020 555 90200=
0291727930242332020010200537+47444-122313FM-15+0132KSEA V0202005N00985006715MN0160935N5+01005+00615101195ADDAA101000095GA1075+006715999GA2075+027435999GD13991+0067159GD23991+0274359GE19MSL   +99999+99999GF199999999999006711999999MA1101125099545OC101395OD149901391200REMMET12101/01/20 16:53:01 METAR KSEA 020053Z 20019G27KT 10SM BKN022 BKN090 10/06 A2986 RMK AO2 PK WND 20027/0052 SLP119 T01000061
0241727930242332020010201137+47444-122313FM-16+0132KSEA V0202105N00885028965MN0160935N5+01005+00615999999ADDGA1045+005795999GA2075+028965999GD12991+0057959GD23991+0289659GE19MSL   +99999+99999GF199999999999005791999999MA1101125099545OC101185REMMET09601/01/20 17:13:01 SPECI KSEA 020113Z 21017G23KT 10SM SCT019 BKN095 10/06 A2986 RMK AO2 T01000061
0211727930242332020010201516+47444-122313FM-16+0132KSEA V0202005N00825006715MN0160935N5+00905+00605999999ADDGA1075+006715999GA2075+027435999GD13991+0067159GD23991+0274359MA1101155099585OC101185REMMET11401/01/20 17:51:03 SPECI KSEA 020151Z 20016G23KT 10SM BKN022 BKN090 09/06 A2987 RMK AO2 PK WND 21026/0131 FIBI (RS)
0291727930242332020010201537+47444-122313FM-15+0132KSEA V0202005N00775006715MN0160935N5+00945+00565101235ADDAA101000095GA1075+006715999GA2075+027435999GD13991+0067159GD23991+0274359GE19MSL   +99999+99999GF199999999999006711999999MA1101155099585OC101185OD149901331210REMMET12101/01/20 17:53:01 METAR KSEA 020153Z 20015G23KT 10SM BKN022 BKN090 09/06 A2987 RMK AO2 PK WND 21026/0131 SLP123 T00940056
0279727930242332020010202537+47444-122313FM-15+0132KSEA V0202105N00515005185MN0160935N5+00895+00565101295ADDAA101000095GA1075+005185999GA2075+024385999GD13991+0051859GD23991+0243859GE19MSL   +99999+99999GF199999999999005181999999MA1101225099645MD1390089+9999OC101085REMMET10901/01/20 18:53:01 METAR KSEA 020253Z 21010G21KT 10SM BKN017 BKN080 09/06 A2989 RMK AO2 SLP129 T00890056 53008
0248727930242332020010203537+47444-122313FM-15+0132KSEA V0202105N00625005495MN0160935N5+00895+00565101385ADDAA101000095GA1075+005495999GA2085+024385999GD13991+0054959GD24991+0243859GE19MSL   +99999+99999GF199999999999005491999999MA1101325099745REMMET10001/01/20 19:53:01 METAR KSEA 020353Z 21012KT 10SM BKN018 OVC080 09/06 A2992 RMK AO2 SLP138 T00890056
0210727930242332020010204537+47444-122313FM-15+0132KSEA V0202105N00675005495MN0160935N5+00895+00505101515ADDAA101000095GA1085+005495999GD14991+0054959GE19MSL   +99999+99999GF199999999999005491999999MA1101465099885REMMET09301/01/20 20:53:02 METAR KSEA 020453Z 21013KT 10SM OVC018 09/05 A2996 RMK AO2 SLP151 T00890050
0268727930242332020010205537+47444-122313FM-15+0132KSEA V0202105N00515005495MN0160935N5+00835+00445101625ADDAA101000095GA1085+005495999GD14991+0054959GE19MSL   +99999+99999GF199999999999005491999999KA1060M+01061KA2060N+00831MA1101565099985MD1390339+9999REMMET11101/01/20 21:53:02 METAR KSEA 020553Z 21010KT 10SM OVC018 08/04 A2999 RMK AO2 SLP162 T00830044 10106 20083 53033
0211727930242332020010206004+47450-122300FM-12+013799999V0202101N005119999999N016000199+00831+00441101621ADDGA1999+004501999GE19MSL   +99999+99999GF108991999999004501999999KA1240M+01171KA2240N+00831MA1999999099931MD1310331+9999REMSYN08072793 32466 82110 10083 20044 39993 40162 53033 90553 333 10117 20083 555 90206=
0210727930242332020010206537+47444-122313FM-15+0132KSEA V0202005N00415007325MN0160935N5+00785+00395101745ADDAA101000095GA1085+007325999GD14991+0073259GE19MSL   +99999+99999GF199999999999007321999999MA1101665100085REMMET09301/01/20 22:53:02 METAR KSEA 020653Z 20008KT 10SM OVC024 08/04 A3002 RMK AO2 SLP174 T00780039
0322727930242332020010207537+47444-122313FM-15+0132KSEA V0202205N00515008845MN0160935N5+00785+00285101835ADDAA101000095GA1075+008845999GA2075+010675999GA3085+018295999GD13991+0088459GD23991+0106759GD34991+0182959GE19MSL   +99999+99999GF199999999999008841999999KA1240M+01171KA2240N+00781MA1101765100185REMMET11701/01/20 23:53:02 METAR KSEA 020753Z 22010KT 10SM BKN029 BKN035 OVC060 08/03 A3005 RMK AO2 SLP183 T00780028 401170078
0899727930242332020010207596+47444-122313SOD  +0132KSEA V020999999999999999999999999999+99999+99999999999ADDAA124000095AJ100009599999999AL12400095AN1024000095KA1240M+01175KA2240N+00785MG1099444100474OE11240147522099995OE22240111822099995OE33240063999999995REMSOD73924 HR PRECIPITATION (IN): 0.00 SNOW DEPTH (IN):0     24 HR SNOWFALL (IN):0.0  24 HR MAX TEMP (F): 5324 HR MIN TEMP (F): 46AVERAGE STATION PRESSURE:29.365 MINIMUM SEA LEVEL PRESSURE:29.67 TIME OF OCCURRENCE:0259 PEAK WIND SPEED (MPH): 33 PEAK WIND DIR (DEG):220 PEAK WIND TIME (LST):      FASTEST 2MIN SPEED (MPH): 25FASTEST 2MIN DIR (DEG):220 FASTEST 2MIN TIME (LST):     AVERAGE WIND SPEED (MPH):14.3 24 HR AVG TEMP (F): 50DEPART FROM NORMAL:  9  HEATING DEGREE DAYS: 15 COOLING DEGREE DAYS:  0 LATEST DAY MAX TEMP (0700-1900 LST):53  LATEST NIGHT MIN TEMP(1900-0800 LST):49 HOURLY INCREMENTAL PRECIPITATION VALUES (IN):.00 0.00 0.00 0.00 0.00 0.00 0.00 0.00 0.00 0.00 0.00 0.00 0.00 0.00 0.00 0.00 0.00 0.00 0.00 0.00 0.00 0.00 0.00 0.00
0216727930242332020010208457+47444-122313FM-16+0132KSEA V0202105N004652200059N0160935N5+00725+00175999999ADDGA1045+007625999GD12991+0076259GE19AGL   +99999+99999GF104995999999007621999999MA1101835100255REMMET09101/02/20 00:45:02 SPECI KSEA 020845Z 21009KT 10SM SCT025 07/02 A3007 RMK AO2 T00720017 (TL)EQDD01      0ADE726
0254727930242332020010208537+47444-122313FM-15+0132KSEA V0202005N004652200059N0160935N5+00725+00225101885ADDAA101000095GA1045+007625999GD12991+0076259GE19AGL   +99999+99999GF104995999999007621999999MA1101835100255MD1190259+9999REMMET10401/02/20 00:53:02 METAR KSEA 020853Z 20009KT 10SM SCT025 07/02 A3007 RMK AO2 SLP188 T00720022 51025 (TL)EQDD01      0ADE726
0220727930242332020010209516+47444-122313FM-16+0132KSEA V0202205N00515007925MN0160935N5+00705+00205999999ADDGA1075+007925999GA2075+014335999GA3085+018295999GD13991+0079259GD23991+0143359GD34991+0182959MA1101905100315REMMET10001/02/20 01:51:02 SPECI KSEA 020951Z 22010KT 10SM BKN026 BKN047 OVC060 07/02 A3009 RMK AO2 FIBI (TL)
0253727930242332020010209537+47444-122313FM-15+0132KSEA V0202205N00465007925MN0160935N5+00725+00225101965ADDAA101000095GA1075+007925999GA2085+014335999GD13991+0079259GD24991+0143359GE19MSL   +99999+99999GF199999999999007921999999MA1101905100315REMMET10501/02/20 01:53:02 METAR KSEA 020953Z 22009KT 10SM BKN026 OVC047 07/02 A3009 RMK AO2 SLP196 T00720022 (TL)
0290727930242332020010210537+47444-122313FM-15+0132KSEA V0202105N00315008235MN0144845N5+00725+00175102065ADDAA101000095GA1075+008235999GA2075+010065999GA3085+014635999GD13991+0082359GD23991+0100659GD34991+0146359GE19MSL   +99999+99999GF199999999999008231999999MA1102005100415REMMET11101/02/20 02:53:02 METAR KSEA 021053Z 21006KT 9SM BKN027 BKN033 OVC048 07/02 A3012 RMK AO2 SLP206 T00720017 (TL)
0273727930242332020010211447+47444-122313FM-16+0132KSEA V0202005N00315014635MN0160935N5+00675+00175999999ADDGA1025+007925999GA2075+014635999GA3085+036585999GD11991+0079259GD23991+0146359GD34991+0365859GE19MSL   +99999+99999GF199999999999007921999999MA1102005100415REMMET10501/02/20 03:44:02 SPECI KSEA 021144Z 20006KT 10SM FEW026 BKN048 OVC120 07/02 A3012 RMK AO2 T00670017 (TL)
0349727930242332020010211537+47444-122313FM-15+0132KSEA V0202205N00465014635MN0160935N5+00675+00175102055ADDAA101000095GA1025+007925999GA2075+014635999GA3085+036585999GD11991+0079259GD23991+0146359GD34991+0365859GE19MSL   +99999+99999GF199999999999007921999999KA1060M+00831KA2060N+00671MA1102005100415MD1090179+9999REMMET13001/02/20 03:53:02 METAR KSEA 021153Z 22009KT 10SM FEW026 BKN048 OVC120 07/02 A3012 RMK AO2 SLP205 T00670017 10083 20067 50017 (TL)
0211727930242332020010212004+47450-122300FM-12+013799999V0202201N004619999999N016000199+00671+00171102051ADDGA1999+008001999GE19MSL   +99999+99999GF108991999999008001999999KA1240M+01171KA2240N+00671MA1999999100361MD1990171+9999REMSYN08072793 32566 82209 10067 20017 30036 40205 50017 91153 333 10117 20067 555 90212=
0253727930242332020010212537+47444-122313FM-15+0132KSEA V0201805N00215036585MN0160935N5+00615+00225102045ADDAA101000095GA1025+007325999GA2085+036585999GD11991+0073259GD24991+0365859GE19MSL   +99999+99999GF199999999999007321999999MA1101965100385REMMET10501/02/20 04:53:02 METAR KSEA 021253Z 18004KT 10SM FEW024 OVC120 06/02 A3011 RMK AO2 SLP204 T00610022 (TL)
0253727930242332020010213537+47444-122313FM-15+0132KSEA V0201605N00265033535MN0160935N5+00615+00175101985ADDAA101000095GA1025+007325999GA2085+033535999GD11991+0073259GD24991+0335359GE19MSL   +99999+99999GF199999999999007321999999MA1101905100315REMMET10501/02/20 05:53:02 METAR KSEA 021353Z 16005KT 10SM FEW024 OVC110 06/02 A3009 RMK AO2 SLP198 T00610017 (TL)
0230727930242332020010214537+47444-122313FM-15+0132KSEA V0201905N00315030485MN0160935N5+00615+00225102055ADDAA101000095GA1085+030485999GD14991+0304859GE19MSL   +99999+99999GF199999999999030481999999MA1101965100385MD1590029+9999REMMET09901/02/20 06:53:02 METAR KSEA 021453Z 19006KT 10SM OVC100 06/02 A3011 RMK AO2 SLP205 T00610022 55002
0253727930242332020010215537+47444-122313FM-15+0132KSEA V0201705N00265028965MN0160935N5+00615+00225102085ADDAA101000095GA1025+006105999GA2085+028965999GD11991+0061059GD24991+0289659GE19MSL   +99999+99999GF199999999999006101999999MA1102005100415REMMET10501/02/20 07:53:02 METAR KSEA 021553Z 17005KT 10SM FEW020 OVC095 06/02 A3012 RMK AO2 SLP208 T00610022 (JC)
0253727930242332020010216537+47444-122313FM-15+0132KSEA V0201605N00365025915MN0160935N5+00615+00175102155ADDAA101000095GA1025+007625999GA2085+025915999GD11991+0076259GD24991+0259159GE19MSL   +99999+99999GF199999999999007621999999MA1102075100485REMMET10501/02/20 08:53:02 METAR KSEA 021653Z 16007KT 10SM FEW025 OVC085 06/02 A3014 RMK AO2 SLP215 T00610017 (JC)
0401727930242332020010217537+47444-122313FM-15+0132KSEA V0201705N00365010675MN0112655N5+00615+00285102195ADDAA101000025AA206000021AU110020015AW1615GA1075+010675999GA2085+013415999GD13991+0106759GD24991+0134159GE19MSL   +99999+99999GF199999999999010671999999KA1060M+00671KA2060N+00611MA1102105100515MD1390149+9999MW1615REMMET14401/02/20 09:53:02 METAR KSEA 021753Z 17007KT 7SM -RA BKN035 OVC044 06/03 A3015 RMK AO2 RAB53 SLP219 P0000 60000 T00610028 10067 20061 53014 (JC)EQDQ01  00002PRCP06Q02  00008PRCP06
0240727930242332020010218004+47450-122300FM-12+013799999V0201701N003619999999N011000199+00611+00281102191ADDAA106000021GA1999+012501999GE19MSL   +99999+99999GF108991999999012501999999KA1120M+00831KA2120N+00611MA1999999100461MD1310141+9999MW1611REMSYN09272793 11661 81707 10061 20028 30046 40219 53014 69901 761// 91753 333 10083 20061 555 90218=
0285727930242332020010218537+47444-122313FM-15+0132KSEA V0201705N00265009755MN0128755N5+00615+00395102185ADDAA101000595AU110020015AW1615GA1045+007015999GA2085+009755999GD12991+0070159GD24991+0097559GE19MSL   +99999+99999GF199999999999007011999999MA1102105100515MW1615REMMET11401/02/20 10:53:02 METAR KSEA 021853Z 17005KT 8SM -RA SCT023 OVC032 06/04 A3015 RMK AO2 SLP218 P0002 T00610039 (JC)
0278727930242332020010219067+47444-122313FM-16+0132KSEA V0201705N00265007625MN0128755N5+00615+00335999999ADDAA101000021AU110020015AW1615GA1075+007625999GA2085+009755999GD13991+0076259GD24991+0097559GE19MSL   +99999+99999GF199999999999007621999999MA1102105100515MW1615REMMET10701/02/20 11:06:02 SPECI KSEA 021906Z 17005KT 8SM -RA BKN025 OVC032 06/03 A3015 RMK AO2 P0000 T00610033 (JC)
0303727930242332020010219537+47444-122313FM-15+0132KSEA V0201405N00415008535MN0160935N5+00615+00285102065ADDAA101000395GA1025+006105999GA2075+008535999GA3085+012805999GD11991+0061059GD23991+0085359GD34991+0128059GE19MSL   +99999+99999GF199999999999006101999999MA1101965100385REMMET12401/02/20 11:53:02 METAR KSEA 021953Z 14008KT 10SM FEW020 BKN028 OVC042 06/03 A3011 RMK AO2 RAE48 SLP206 P0001 T00610028 (JC)
0391727930242332020010220537+47444-122313FM-15+0132KSEA V0201505N00315006715MN0112655N5+00615+00285101975ADDAA101000025AA203000891AU110020015AW1615GA1075+006715999GA2075+008535999GA3085+015245999GD13991+0067159GD23991+0085359GD34991+0152459GE19MSL   +99999+99999GF199999999999006711999999MA1101905100315MD1890219+9999MW1615REMMET14501/02/20 12:53:02 METAR KSEA 022053Z 15006KT 7SM -RA BKN022 BKN028 OVC050 06/03 A3009 RMK AO2 RAB01E12B33 SLP197 P0000 60003 T00610028 58021 (JC)EQDQ01  00078PRCP03
0316727930242332020010221357+47444-122313FM-16+0132KSEA V0201705N00215003965MN0096565N5+00565+00285999999ADDAA101000231AU110020015AW1615GA1075+003965999GA2075+006105999GA3085+009145999GD13991+0039659GD23991+0061059GD34991+0091459GE19MSL   +99999+99999GF199999999999003961999999MA1101835100255MW1615REMMET11401/02/20 13:35:02 SPECI KSEA 022135Z 17004KT 6SM -RA BKN013 BKN020 OVC030 06/03 A3007 RMK AO2 P0001 T00560028 (JC)
0285727930242332020010221537+47444-122313FM-15+0132KSEA V0201305N00415003965MN0096565N5+00565+00285101885ADDAA101000895AU110020015AW1615GA1075+003965999GA2085+006105999GD13991+0039659GD24991+0061059GE19MSL   +99999+99999GF199999999999003961999999MA1101795100215MW1615REMMET11401/02/20 13:53:02 METAR KSEA 022153Z 13008KT 6SM -RA BKN013 OVC020 06/03 A3006 RMK AO2 SLP188 P0002 T00560028 (RS)
0278727930242332020010222207+47444-122313FM-16+0132KSEA V0201405N00365004575MN0128755N5+00565+00285999999ADDAA101000531AU110020015AW1615GA1075+004575999GA2085+008235999GD13991+0045759GD24991+0082359GE19MSL   +99999+99999GF199999999999004571999999MA1101795100215MW1615REMMET10701/02/20 14:20:02 SPECI KSEA 022220Z 14007KT 8SM -RA BKN015 OVC027 06/03 A3006 RMK AO2 P0002 T00560028 (RS)
0285727930242332020010222537+47444-122313FM-15+0132KSEA V0201305N00415008535MN0128755N5+00565+00285101825ADDAA101000895AU110020015AW1615GA1045+004575999GA2085+008535999GD12991+0045759GD24991+0085359GE19MSL   +99999+99999GF199999999999004571999999MA1101735100155MW1615REMMET11401/02/20 14:53:02 METAR KSEA 022253Z 13008KT 8SM -RA SCT015 OVC028 06/03 A3004 RMK AO2 SLP182 P0004 T00560028 (RS)
0399727930242332020010223537+47444-122313FM-15+0132KSEA V0201305N00365004575MN0096565N5+00505+00285101775ADDAA101000595AA206002891AU110020015AU200001015AW1105AW2615GA1075+004575999GA2085+009145999GD13991+0045759GD24991+0091459GE19MSL   +99999+99999GF199999999999004571999999KA1060M+00671KA2060N+00501MA1101695100115MD1690209+9999MW1615REMMET14101/02/20 15:53:02 METAR KSEA 022353Z 13007KT 6SM -RA BR BKN015 OVC030 05/03 A3003 RMK AO2 SLP177 P0002 60011 T00500028 10067 20050 56020 (RS)EQDQ01  00278PRCP06
0246727930242332020010300004+47450-122300FM-12+013799999V0201301N003619999999N009000199+00501+00281101771ADDAA106003031GA1999+004501999GE19MSL   +99999+99999GF108991999999004501999999KA1120M+00671KA2120N+00501MA1999999100061MD1610201+9999MW1611REMSYN09872793 11459 81307 10050 20028 30006 40177 56020 60031 761// 92353 333 10067 20050 96010 555 90300=
0331727930242332020010300177+47444-122313FM-16+0132KSEA V0201205N00365009455MN0080475N5+00505+00285999999ADDAA101000231AU110020015AU200001015AW1105AW2615GA1025+003055999GA2045+004575999GA3085+009455999GD11991+0030559GD22991+0045759GD34991+0094559GE19MSL   +99999+99999GF199999999999003051999999MA1101635100055MW1615REMMET11201/02/20 16:17:01 SPECI KSEA 030017Z 12007KT 5SM -RA BR FEW010 SCT015 OVC031 05/03 A3001 RMK AO2 P0001 T00500028
0281727930242332020010300537+47444-122313FM-15+0132KSEA V0201105N00415013415MN0160935N5+00505+00335101615ADDAA101000595AU110020015AW1615GA1025+008235999GA2085+013415999GD11991+0082359GD24991+0134159GE19MSL   +99999+99999GF199999999999008231999999MA1101525099945MW1615REMMET11001/02/20 16:53:01 METAR KSEA 030053Z 11008KT 10SM -RA FEW027 OVC044 05/03 A2998 RMK AO2 SLP161 P0002 T00500033
0273727930242332020010301137+47444-122313FM-16+0132KSEA V0201105N00365008235MN0112655N5+00505+00335999999ADDAA101000021AU110020015AW1615GA1075+008235999GA2085+012505999GD13991+0082359GD24991+0125059GE19MSL   +99999+99999GF199999999999008231999999MA1101495099915MW1615REMMET10201/02/20 17:13:01 SPECI KSEA 030113Z 11007KT 7SM -RA BKN027 OVC041 05/03 A2997 RMK AO2 P0000 T00500033
0279727930242332020010301537+47444-122313FM-15+0132KSEA V0201405N00415006405MN0048285N5+00505+00395101545ADDAA101000395AU100001015AW1105GA1075+006405999GA2085+012195999GD13991+0064059GD24991+0121959GE19MSL   +99999+99999GF199999999999006401999999MA1101465099885REMMET11401/02/20 17:53:01 METAR KSEA 030153Z 14008KT 3SM BR BKN021 OVC040 05/04 A2996 RMK AO2 RAE53 SLP154 P0001 T00500039
0364727930242332020010302537+47444-122313FM-15+0132KSEA V0201705N00465006715MN0064375N5+00615+00505101485ADDAA101000595AA203001091AU110020015AU200001015AW1105AW2615GA1075+006715999GA2085+008845999GD13991+0067159GD24991+0088459GE19MSL   +99999+99999GF199999999999006711999999MA1101395099815MD1690299+9999MW1615REMMET13201/02/20 18:53:01 METAR KSEA 030253Z 17009KT 4SM -RA BR BKN022 OVC029 06/05 A2994 RMK AO2 RAB0154 SLP148 P0001 60004 T00610050 56029EQDQ01  00108PRCP03
0293727930242332020010303327+47444-122313FM-16+0132KSEA V0201805N00515008235MN0048285N5+00675+00565999999ADDAA101000531AU110020015AU200001015AW1105AW2615GA1025+001225999GA2085+008235999GD11991+0012259GD24991+0082359GE19MSL   +99999+99999GF199999999999001221999999MA1101395099815MW1615REMMET10501/02/20 19:32:01 SPECI KSEA 030332Z 18010KT 3SM -RA BR FEW004 OVC027 07/06 A2994 RMK AO2 P0002 T00670056
0300727930242332020010303537+47444-122313FM-15+0132KSEA V0201605N00365007625MN0048285N5+00675+00565101495ADDAA101000895AU110020015AU200001015AW1105AW2615GA1025+001525999GA2085+007625999GD11991+0015259GD24991+0076259GE19MSL   +99999+99999GF199999999999001521999999MA1101425099845MW1615REMMET11201/02/20 19:53:01 METAR KSEA 030353Z 16007KT 3SM -RA BR FEW005 OVC025 07/06 A2995 RMK AO2 SLP149 P0004 T00670056
0300727930242332020010304537+47444-122313FM-15+0132KSEA V0201705N00625008235MN0080475N5+00785+00675101485ADDAA101000595AU110020015AU200001015AW1105AW2615GA1025+005185999GA2085+008235999GD11991+0051859GD24991+0082359GE19MSL   +99999+99999GF199999999999005181999999MA1101425099845MW1615REMMET11201/02/20 20:53:02 METAR KSEA 030453Z 17012KT 5SM -RA BR FEW017 OVC027 08/07 A2995 RMK AO2 SLP148 P0001 T00780067
0253727930242332020010305317+47444-122313FM-16+0132KSEA V0201805N00625010365MN0160935N5+00835+00675999999ADDAA101000231GA1045+008845999GA2085+010365999GD12991+0088459GD24991+0103659GE19MSL   +99999+99999GF199999999999008841999999MA1101425099845REMMET10501/02/20 21:31:02 SPECI KSEA 030531Z 18012KT 10SM SCT029 OVC034 08/07 A2995 RMK AO2 RAE31 P0001 T00830067
0384727930242332020010305537+47444-122313FM-15+0132KSEA V0201805N00775014635MN0160935N5+00945+00675101495ADDAA101000025AA206002591AU110020015AW1615GA1045+008845999GA2085+014635999GD12991+0088459GD24991+0146359GE19MSL   +99999+99999GF199999999999008841999999KA1060M+00941KA2060N+00501MA1101425099845MD1190019+9999MW1615REMMET14301/02/20 21:53:02 METAR KSEA 030553Z 18015KT 10SM -RA SCT029 OVC048 09/07 A2995 RMK AO2 RAE31B50 SLP149 P0001 60010 T00940067 10094 20050 51001EQDQ01  00258PRCP06
0240727930242332020010306004+47450-122300FM-12+013799999V0201801N007719999999N016000199+00941+00671101491ADDAA106003031GA1999+008001999GE19MSL   +99999+99999GF108991999999008001999999KA1240M+00941KA2240N+00501MA1999999099791MD1110011+9999MW1611REMSYN09272793 11566 81815 10094 20067 39979 40149 51001 60031 761// 90553 333 10094 20050 555 90306=
0194727930242332020010306516+47444-122313FM-16+0132KSEA V0201905N00515008535MN0160935N5+00905+00705999999ADDGA1075+008535999GA2085+011585999GD13991+0085359GD24991+0115859MA1101465099885REMMET10501/02/20 22:51:03 SPECI KSEA 030651Z 19010KT 10SM BKN028 OVC038 09/07 A2996 RMK AO2 RAE28 P0000 FIBI (TL)
0260727930242332020010306537+47444-122313FM-15+0132KSEA V0201905N00575008535MN0160935N5+00945+00675101525ADDAA101000025GA1075+008535999GA2085+011585999GD13991+0085359GD24991+0115859GE19MSL   +99999+99999GF199999999999008531999999MA1101465099885REMMET11201/02/20 22:53:02 METAR KSEA 030653Z 19011KT 10SM BKN028 OVC038 09/07 A2996 RMK AO2 RAE28 SLP152 P0000 T00940067
0230727930242332020010307187+47444-122313FM-16+0132KSEA V0201905N00725011585MN0160935N5+01005+00675999999ADDGA1045+009145999GA2085+011585999GD12991+0091459GD24991+0115859GE19MSL   +99999+99999GF199999999999009141999999MA1101465099885REMMET09301/02/20 23:18:02 SPECI KSEA 030718Z 19014KT 10SM SCT030 OVC038 10/07 A2996 RMK AO2 T01000067
0333727930242332020010307537+47444-122313FM-15+0132KSEA V0201705N00725013115MN0160935N5+01005+00675101505ADDAA101000095GA1025+010365999GA2075+013115999GA3085+024385999GD11991+0103659GD23991+0131159GD34991+0243859GE19MSL   +99999+99999GF199999999999010361999999KA1240M+01001KA2240N+00501MA1101425099845OC101085REMMET12001/02/20 23:53:02 METAR KSEA 030753Z 17014G21KT 10SM FEW034 BKN043 OVC080 10/07 A2995 RMK AO2 SLP150 T01000067 401000050
0976727930242332020010307596+47444-122313SOD  +0132KSEA V020999999999999999999999999999+99999+99999999999ADDAA124005395AJ100009599999999AL12400095AN1024000095AT1AU16RA  5AT2AU13BR  5AX1015245KA1240M+01005KA2240N+00505MG1100204101464OE11240120717099995OE22240089418099995OE33240041199999995REMSOD78324 HR PRECIPITATION (IN): 0.21 SNOW DEPTH (IN):0     24 HR SNOWFALL (IN):0.0  WEATHER(CODE):1  24 HR MAX TEMP (F): 5024 HR MIN TEMP (F): 41AVERAGE STATION PRESSURE:29.590 MINIMUM SEA LEVEL PRESSURE:29.96 TIME OF OCCURRENCE:2216 PEAK WIND SPEED (MPH): 27 PEAK WIND DIR (DEG):170 PEAK WIND TIME (LST):      FASTEST 2MIN SPEED (MPH): 20FASTEST 2MIN DIR (DEG):180 FASTEST 2MIN TIME (LST):     AVERAGE WIND SPEED (MPH): 9.2 24 HR AVG TEMP (F): 46DEPART FROM NORMAL:  5  SKY COVER SR-SS (TENTHS): 1HEATING DEGREE DAYS: 19 COOLING DEGREE DAYS:  0 LATEST DAY MAX TEMP (0700-1900 LST):44  LATEST NIGHT MIN TEMP(1900-0800 LST):43 HOURLY INCREMENTAL PRECIPITATION VALUES (IN):.00 0.00 0.00 0.00 0.00 0.00 0.00 0.00 0.00 T    0.02 0.01 T    0.03 0.03 0.02 0.02 0.01 0.02 0.03 0.02 T    T    0.00
0266727930242332020010308337+47444-122313FM-16+0132KSEA V0201605N00675008235MN0064375N5+00945+00725999999ADDAA101000021AU110020015AU200001015AW1105AW2615GA1085+008235999GD14991+0082359GE19MSL   +99999+99999GF199999999999008231999999MA1101465099885MW1615REMMET10901/03/20 00:33:02 SPECI KSEA 030833Z 16013KT 4SM -RA BR OVC027 09/07 A2996 RMK AO2 RAB17 P0000 T00940072 (TL)
0320727930242332020010308537+47444-122313FM-15+0132KSEA V0201505N00575007625MN0064375N5+01005+00725101505ADDAA101000395AA203000391AU110020015AW1615GA1085+007625999GD14991+0076259GE19MSL   +99999+99999GF199999999999007621999999MA1101425099845MD1190029+9999MW1615OC101035REMMET12801/03/20 00:53:02 METAR KSEA 030853Z 15011G20KT 4SM -RA OVC025 10/07 A2995 RMK AO2 RAB17 SLP150 P0001 60001 T01000072 51002 (TL)EQDQ01  00028PRCP03
0226727930242332020010309537+47444-122313FM-15+0132KSEA V0201605N00625007015MN0112655N5+01005+00725101465ADDAA101000025GA1085+007015999GD14991+0070159GE19MSL   +99999+99999GF199999999999007011999999MA1101395099815REMMET10901/03/20 01:53:02 METAR KSEA 030953Z 16012KT 7SM OVC023 10/07 A2994 RMK AO2 RAE37 SLP146 P0000 T01000072 (TL)
0202727930242332020010310516+47444-122313FM-16+0132KSEA V0202005N00575009455MN0064375N5+00905+00805999999ADDAU110020015AU200001015AW1105AW2615GA1085+009455999GD14991+0094559MA1101425099845MW1615REMMET10401/03/20 02:51:02 SPECI KSEA 031051Z 20011KT 4SM -RA BR OVC031 09/08 A2995 RMK AO2 RAB23 P0002 FIBI (TL)
0273727930242332020010310537+47444-122313FM-15+0132KSEA V0202005N00515010065MN0064375N5+00945+00785101495ADDAA101000895AU110020015AU200001015AW1105AW2615GA1085+010065999GD14991+0100659GE19MSL   +99999+99999GF199999999999010061999999MA1101425099845MW1615REMMET11601/03/20 02:53:02 METAR KSEA 031053Z 20010KT 4SM -RA BR OVC033 09/08 A2995 RMK AO2 RAB23 SLP149 P0002 T00940078 (TL)
0196727930242332020010311516+47444-122313FM-16+0132KSEA V0201805N00415007925MN0064375N5+00905+00805999999ADDAU110020015AU200001015AW1105AW2615GA1085+007925999GD14991+0079259MA1101425099845MW1615REMMET09801/03/20 03:51:02 SPECI KSEA 031151Z 18008KT 4SM -RA BR OVC026 09/08 A2995 RMK AO2 P0005 FIBI (TL)
0394727930242332020010311537+47444-122313FM-15+0132KSEA V0201805N00415007925MN0064375N5+00945+00785101515ADDAA101001395AA206002091AA324007491AU110020015AU200001015AW1105AW2615GA1085+007925999GD14991+0079259GE19MSL   +99999+99999GF199999999999007921999999KA1060M+01001KA2060N+00891MA1101425099845MD1590009+9999MW1615REMMET14001/03/20 03:53:02 METAR KSEA 031153Z 18008KT 4SM -RA BR OVC026 09/08 A2995 RMK AO2 SLP151 P0005 60008 70029 T00940078 10100 20089 55000 (TL)EQDQ01  00208PRCP06Q02  00738PRCP24
0263727930242332020010312004+47450-122300FM-12+013799999V0201801N004119999999N006000199+00941+00781101511ADDAA106002031AA224007431GA1999+008001999GE19MSL   +99999+99999GF108991999999008001999999KA1240M+01001KA2240N+00501MA1999999099791MD1510001+9999MW1611REMSYN10472793 11556 81808 10094 20078 39979 40151 55000 60021 761// 91153 333 10100 20050 70074 96010 555 90312=
0227727930242332020010312537+47444-122313FM-15+0132KSEA V0201805N00365007625MN0160935N5+00945+00785101415ADDAA101001095GA1085+007625999GD14991+0076259GE19MSL   +99999+99999GF199999999999007621999999MA1101325099745REMMET11001/03/20 04:53:02 METAR KSEA 031253Z 18007KT 10SM OVC025 09/08 A2992 RMK AO2 RAE53 SLP141 P0005 T00940078 (TL)
0299727930242332020010313467+47444-122313FM-16+0132KSEA V0201705N00315012195MN0160935N5+01005+00785999999ADDAA101000231GA1025+009755999GA2075+012195999GA3085+036585999GD11991+0097559GD23991+0121959GD34991+0365859GE19MSL   +99999+99999GF199999999999009751999999MA1101395099815REMMET12001/03/20 05:46:02 SPECI KSEA 031346Z 17006KT 10SM FEW032 BKN040 OVC120 10/08 A2994 RMK AO2 RAB04E23 P0001 T01000078 (TL)
0306727930242332020010313537+47444-122313FM-15+0132KSEA V0201905N00315012195MN0160935N5+00945+00725101475ADDAA101000395GA1025+010065999GA2075+012195999GA3075+036585999GD11991+0100659GD23991+0121959GD33991+0365859GE19MSL   +99999+99999GF199999999999010061999999MA1101395099815REMMET12701/03/20 05:53:02 METAR KSEA 031353Z 19006KT 10SM FEW033 BKN040 BKN120 09/07 A2994 RMK AO2 RAB04E23 SLP147 P0001 T00940072 (JC)
0328727930242332020010314537+47444-122313FM-15+0132KSEA V0201605N00215067065MN0160935N5+00835+00725101475ADDAA101000095AA203001591GA1025+012195999GA2025+036585999GA3085+067065999GD11991+0121959GD21991+0365859GD34991+0670659GE19MSL   +99999+99999GF199999999999012191999999MA1101395099815MD1690049+9999REMMET12401/03/20 06:53:02 METAR KSEA 031453Z 16004KT 10SM FEW040 FEW120 OVC220 08/07 A2994 RMK AO2 SLP147 60006 T00830072 56004 (JC)
0291727930242332020010315537+47444-122313FM-15+0132KSEA V0201605N00315073155MN0160935N5+00945+00615101495ADDAA101000095GA1025+007625999GA2045+036585999GA3085+073155999GD11991+0076259GD22991+0365859GD34991+0731559GE19MSL   +99999+99999GF199999999999007621999999MA1101425099845REMMET11201/03/20 07:53:02 METAR KSEA 031553Z 16006KT 10SM FEW025 SCT120 OVC240 09/06 A2995 RMK AO2 SLP149 T00940061 (JC)
0304727930242332020010316537+47444-122313FM-15+0132KSEA V0201705N00215076205MN0160935N5+01175+00395101545ADDAA101000095GA1025+007625999GA2045+036585999GA3085+076205999GD11991+0076259GD22991+0365859GD34991+0762059GE19MSL   +99999+99999GF199999999999007621999999MA1101495099915REMMET12501/03/20 08:53:02 METAR KSEA 031653Z 17004KT 10SM FEW025 SCT120 OVC250 12/04 A2997 RMK AO2 SLP154 ACSL DSNT SE T01170039 (JC)
0379727930242332020010317537+47444-122313FM-15+0132KSEA V0203505N00215076205MN0160935N5+01005+00675101595ADDAA101000095AA206001591GA1025+009145999GA2025+036585999GA3075+076205999GD11991+0091459GD21991+0365859GD33991+0762059GE19MSL   +99999+99999GF199999999999009141999999KA1060M+01221KA2060N+00831MA1101525099945MD1390129+9999REMMET14901/03/20 09:53:02 METAR KSEA 031753Z 35004KT 10SM FEW030 FEW120 BKN250 10/07 A2998 RMK AO2 SLP159 ACSL DSNT SE 60006 T01000067 10122 20083 53012 (JC)
0228727930242332020010318004+47450-122300FM-12+013799999V0203501N002119999999N016000199+01001+00671101591ADDAA106002031GA1999+008001999GE19MSL   +99999+99999GF106991999999008001999999KA1120M+01221KA2120N+00501MA1999999099891MD1310121+9999REMSYN08672793 12566 63504 10100 20067 39989 40159 53012 60021 91753 333 10122 20050 555 90318=
0291727930242332020010318537+47444-122313FM-15+0132KSEA V0203205N00155076205MN0160935N5+01115+00565101595ADDAA101000095GA1025+009145999GA2025+036585999GA3075+076205999GD11991+0091459GD21991+0365859GD33991+0762059GE19MSL   +99999+99999GF199999999999009141999999MA1101525099945REMMET11201/03/20 10:53:02 METAR KSEA 031853Z 32003KT 10SM FEW030 FEW120 BKN250 11/06 A2998 RMK AO2 SLP159 T01110056 (JC)
0291727930242332020010319537+47444-122313FM-15+0132KSEA V0209999C00005076205MN0160935N5+01115+00615101505ADDAA101000095GA1025+010675999GA2025+042675999GA3085+076205999GD11991+0106759GD21991+0426759GD34991+0762059GE19MSL   +99999+99999GF199999999999010671999999MA1101425099845REMMET11201/03/20 11:53:02 METAR KSEA 031953Z 00000KT 10SM FEW035 FEW140 OVC250 11/06 A2995 RMK AO2 SLP150 T01110061 (JC)
0311727930242332020010320537+47444-122313FM-15+0132KSEA V0201405N00265042675MN0160935N5+01175+00505101375ADDAA101000095GA1025+010675999GA2075+042675999GA3085+076205999GD11991+0106759GD23991+0426759GD34991+0762059GE19MSL   +99999+99999GF199999999999010671999999MA1101325099745MD1890219+9999REMMET11801/03/20 12:53:02 METAR KSEA 032053Z 14005KT 10SM FEW035 BKN140 OVC250 12/05 A2992 RMK AO2 SLP137 T01170050 58021 (JC)
0304727930242332020010321537+47444-122313FM-15+0132KSEA V0201605N00155048775MN0160935N5+01175+00675101265ADDAA101000095GA1025+010675999GA2075+048775999GA3075+076205999GD11991+0106759GD23991+0487759GD33991+0762059GE19MSL   +99999+99999GF199999999999010671999999MA1101195099615REMMET12501/03/20 13:53:02 METAR KSEA 032153Z 16003KT 10SM FEW035 BKN160 BKN250 12/07 A2988 RMK AO2 SLP126 ACSL DSNT SE T01170067 (RS)
0291727930242332020010322537+47444-122313FM-15+0132KSEA V0201605N00265048775MN0160935N5+01065+00615101175ADDAA101000095GA1025+012195999GA2075+048775999GA3075+076205999GD11991+0121959GD23991+0487759GD33991+0762059GE19MSL   +99999+99999GF199999999999012191999999MA1101125099545REMMET11201/03/20 14:53:02 METAR KSEA 032253Z 16005KT 10SM FEW040 BKN160 BKN250 11/06 A2986 RMK AO2 SLP117 T01060061 (RS)
0349727930242332020010323537+47444-122313FM-15+0132KSEA V0201505N00515051825MN0160935N5+01175+00505101035ADDAA101000095GA1025+012195999GA2075+051825999GA3075+076205999GD11991+0121959GD23991+0518259GD33991+0762059GE19MSL   +99999+99999GF199999999999012191999999KA1060M+01221KA2060N+01001MA1100955099385MD1890349+9999REMMET13001/03/20 15:53:02 METAR KSEA 032353Z 15010KT 10SM FEW040 BKN170 BKN250 12/05 A2981 RMK AO2 SLP103 T01170050 10122 20100 58034 (RS)
0211727930242332020010400004+47450-122300FM-12+013799999V0201501N005119999999N016000199+01171+00501101031ADDGA1999+012501999GE19MSL   +99999+99999GF106991999999012501999999KA1120M+01221KA2120N+00891MA1999999099331MD1810341+9999REMSYN08072793 32666 61510 10117 20050 39933 40103 58034 92353 333 10122 20089 555 90400=
0330727930242332020010400537+47444-122313FM-15+0132KSEA V0201705N00935051825MN0160935N5+01505-00225100845ADDAA101000095GA1025+012195999GA2075+051825999GA3085+076205999GD11991+0121959GD23991+0518259GD34991+0762059GE19MSL   +99999+99999GF199999999999012191999999MA1100785099215OC101395OD149901391170REMMET12901/03/20 16:53:01 METAR KSEA 040053Z 17018G27KT 10SM FEW040 BKN170 OVC250 15/M02 A2976 RMK AO2 PK WND 17027/0049 SLP084 T01501022
0330727930242332020010401537+47444-122313FM-15+0132KSEA V0201805N01035033535MN0160935N5+01615-00445100695ADDAA101000095GA1045+022865999GA2075+033535999GA3085+054865999GD12991+0228659GD23991+0335359GD34991+0548659GE19MSL   +99999+99999GF199999999999022861999999MA1100645099085OC101345OD149901441180REMMET12901/03/20 17:53:01 METAR KSEA 040153Z 18020G26KT 10SM SCT075 BKN110 OVC180 16/M04 A2972 RMK AO2 PK WND 18028/0126 SLP069 T01611044
0440727930242332020010402537+47444-122313FM-15+0132KSEA V0201905N00725025915MN0160935N5+01445+00065100615ADDAA101000025AA203000021AU110020015AW1615GA1045+018295999GA2075+025915999GA3085+045725999GD12991+0182959GD23991+0259159GD34991+0457259GE19MSL   +99999+99999GF199999999999018291999999MA1100545098985MD1690409+9999MW1615OC100985OD149901491170REMMET15601/03/20 18:53:01 METAR KSEA 040253Z 19014G19KT 10SM -RA SCT060 BKN085 OVC150 14/01 A2969 RMK AO2 PK WND 17029/0203 RAB04 SLP061 P0000 60000 T01440006 56040EQDQ01  00002PRCP03Q02  00008PRCP03
0301727930242332020010403537+47444-122313FM-15+0132KSEA V0202805N00315018295MN0160935N5+01065+00395100635ADDAA101000395AU110020015AW1615GA1075+018295999GA2085+036585999GD13991+0182959GD24991+0365859GE19MSL   +99999+99999GF199999999999018291999999MA1100585099015MW1615OC100885REMMET12201/03/20 19:53:01 METAR KSEA 040353Z 28006G17KT 10SM -RA BKN060 OVC120 11/04 A2970 RMK AO2 RAE12B34 SLP063 P0001 T01060039
0253727930242332020010404537+47444-122313FM-15+0132KSEA V0202405N00575016765MN0128755N5+00945+00565100735ADDAA101001395AU110020015AW1615GA1085+016765999GD14991+0167659GE19MSL   +99999+99999GF199999999999016761999999MA1100685099115MW1615OC101035REMMET10501/03/20 20:53:02 METAR KSEA 040453Z 24011G20KT 8SM -RA OVC055 09/06 A2973 RMK AO2 SLP073 P0004 T00940056
0425727930242332020010405537+47444-122313FM-15+0132KSEA V0202205N00625011585MN0160935N5+00895+00675100865ADDAA101001595AA206003091AU110020015AW1615GA1025+003965999GA2085+011585999GD11991+0039659GD24991+0115859GE19MSL   +99999+99999GF199999999999003961999999KA1060M+01671KA2060N+00891MA1100815099245MD1390249+9999MW1615OC101135OD149901751220REMMET16201/03/20 21:53:02 METAR KSEA 040553Z 22012G22KT 10SM -RA FEW013 OVC038 09/07 A2977 RMK AO2 PK WND 22034/0509 PRESRR SLP086 P0007 60012 T00890067 10167 20089 53024EQDQ01  00308PRCP06
0260727930242332020010406004+47450-122300FM-12+013799999V0202201N006219999999N016000199+00891+00671100861ADDAA106003031GA1999+004501999GE19MSL   +99999+99999GF108991999999004501999999KA1240M+01671KA2240N+00891MA1999999099191MD1310241+9999MW1611OD149901131999REMSYN09872793 11466 82212 10089 20067 39919 40086 53024 60031 761// 90553 333 10167 20089 91022 555 90406=
0318727930242332020010406537+47444-122313FM-15+0132KSEA V0202105N00625012505MN0144845N5+00835+00675101005ADDAA101001095AU110020015AW1615GA1025+007925999GA2045+010365999GA3085+012505999GD11991+0079259GD22991+0103659GD34991+0125059GE19MSL   +99999+99999GF199999999999007921999999MA1100955099385MW1615REMMET11601/03/20 22:53:02 METAR KSEA 040653Z 21012KT 9SM -RA FEW026 SCT034 OVC041 08/07 A2981 RMK AO2 SLP100 P0003 T00830067
0322727930242332020010407127+47444-122313FM-16+0132KSEA V0202105N00725007625MN0144845N5+00785+00675999999ADDAA101000531AU110020015AW1615GA1045+002745999GA2075+007625999GA3085+011285999GD12991+0027459GD23991+0076259GD34991+0112859GE19MSL   +99999+99999GF199999999999002741999999MA1100985099415MW1615OC100985REMMET11201/03/20 23:12:02 SPECI KSEA 040712Z 21014G19KT 9SM -RA SCT009 BKN025 OVC037 08/07 A2982 RMK AO2 P0002 T00780067
0342727930242332020010407367+47444-122313FM-16+0132KSEA V0202105N00625003965MN0096565N5+00785+00675999999ADDAA101001731AU110020015AU200001015AW1105AW2615GA1045+002135999GA2075+003965999GA3085+010365999GD12991+0021359GD23991+0039659GD34991+0103659GE19MSL   +99999+99999GF199999999999002131999999MA1100985099415MW1615OC101085REMMET11501/03/20 23:36:02 SPECI KSEA 040736Z 21012G21KT 6SM -RA BR SCT007 BKN013 OVC034 08/07 A2982 RMK AO2 P0007 T00780067
0354727930242332020010407537+47444-122313FM-15+0132KSEA V0202205N00625004575MN0144845N5+00785+00615101065ADDAA101002395AU110020015AW1615GA1025+002135999GA2075+004575999GA3085+010365999GD11991+0021359GD23991+0045759GD34991+0103659GE19MSL   +99999+99999GF199999999999002131999999KA1240M+01671KA2240N+00781MA1100985099415MW1615REMMET12601/03/20 23:53:02 METAR KSEA 040753Z 22012KT 9SM -RA FEW007 BKN015 OVC034 08/06 A2982 RMK AO2 SLP106 P0010 T00780061 401670078
0994727930242332020010407596+47444-122313SOD  +0132KSEA V020999999999999999999999999999+99999+99999999999ADDAA124009995AJ100009599999999AL12400095AN1024000095AT1AU16RA  5AT2AU13BR  5AX1016246AX2086246KA1240M+01675KA2240N+00785MG1099594100584OE11240174322099995OE22240125222099995OE33240043499999995REMSOD75724 HR PRECIPITATION (IN): 0.39 SNOW DEPTH (IN):0     24 HR SNOWFALL (IN):0.0  WEATHER(CODE):18  24 HR MAX TEMP (F): 6224 HR MIN TEMP (F): 46AVERAGE STATION PRESSURE:29.410 MINIMUM SEA LEVEL PRESSURE:29.70 TIME OF OCCURRENCE:1933 PEAK WIND SPEED (MPH): 39 PEAK WIND DIR (DEG):220 PEAK WIND TIME (LST):      FASTEST 2MIN SPEED (MPH): 28FASTEST 2MIN DIR (DEG):220 FASTEST 2MIN TIME (LST):     AVERAGE WIND SPEED (MPH): 9.7 24 HR AVG TEMP (F): 54DEPART FROM NORMAL: 13  HEATING DEGREE DAYS: 11 COOLING DEGREE DAYS:  0 LATEST DAY MAX TEMP (0700-1900 LST):62  LATEST NIGHT MIN TEMP(1900-0800 LST):43 HOURLY INCREMENTAL PRECIPITATION VALUES (IN):.01 T    0.03 0.05 0.04 0.01 0.00 0.00 0.00 0.00 0.00 0.00 0.00 0.00 0.00 0.00 0.00 0.00 T    0.01 0.05 0.06 0.04 0.09EQDR01    187AXW093R02    187AXW093
0279727930242332020010408057+47444-122313FM-16+0132KSEA V0202005N00675010975MN0160935N5+00725+00565999999ADDAA101000231AU110020015AW1615GA1025+002745999GA2085+010975999GD11991+0027459GD24991+0109759GE19MSL   +99999+99999GF199999999999002741999999MA1100985099415MW1615REMMET10801/04/20 00:05:02 SPECI KSEA 040805Z 20013KT 10SM -RA FEW009 OVC036 07/06 A2982 RMK AO2 P0001 T00720056 (LC)
0391727930242332020010408537+47444-122313FM-15+0132KSEA V0201805N00725009755MN0160935N5+00675+00505101125ADDAA101001395AA203004391AU110020015AW1615GA1025+002745999GA2045+007325999GA3085+009755999GD11991+0027459GD22991+0073259GD34991+0097559GE19MSL   +99999+99999GF199999999999002741999999MA1101055099485MD1190259+9999MW1615OC100985REMMET13701/04/20 00:53:02 METAR KSEA 040853Z 18014G19KT 10SM -RA FEW009 SCT024 OVC032 07/05 A2984 RMK AO2 SLP112 P0004 60017 T00670050 51025 (LC)EQDQ01  00438PRCP03
0328727930242332020010409017+47444-122313FM-16+0132KSEA V0201805N00775007325MN0160935N5+00675+00505999999ADDAA101000231AU110020015AW1615GA1025+002135999GA2075+007325999GA3085+009145999GD11991+0021359GD23991+0073259GD34991+0091459GE19MSL   +99999+99999GF199999999999002131999999MA1101055099485MW1615OC101135REMMET11801/04/20 01:01:02 SPECI KSEA 040901Z 18015G22KT 10SM -RA FEW007 BKN024 OVC030 07/05 A2984 RMK AO2 P0001 T00670050 (LC)
0303727930242332020010409537+47444-122313FM-15+0132KSEA V0201905N00935004575MN0160935N5+00725+00505101185ADDAA101000025GA1025+002745999GA2075+004575999GA3085+014945999GD11991+0027459GD23991+0045759GD34991+0149459GE19MSL   +99999+99999GF199999999999002741999999MA1101125099545REMMET12401/04/20 01:53:02 METAR KSEA 040953Z 19018KT 10SM FEW009 BKN015 OVC049 07/05 A2986 RMK AO2 RAE08 SLP118 P0001 T00720050 (LC)
0278727930242332020010410177+47444-122313FM-16+0132KSEA V0202105N00935004275MN0160935N5+00725+00505999999ADDGA1075+004275999GA2085+014945999GD13991+0042759GD24991+0149459GE19MSL   +99999+99999GF199999999999004271999999MA1101195099615OC101495OD149901491210REMMET11901/04/20 02:17:02 SPECI KSEA 041017Z 21018G29KT 10SM BKN014 OVC049 07/05 A2988 RMK AO2 PK WND 21029/1001 T00720050 (LC)
0249727930242332020010410516+47444-122313FM-16+0132KSEA V0202105N00885015245MN0160935N5+00705+00405999999ADDGA1045+005185999GA2075+015245999GA3085+018295999GD12991+0051859GD23991+0152459GD34991+0182959MA1101195099615OC101345REMMET12101/04/20 02:51:02 SPECI KSEA 041051Z 21017G26KT 10SM SCT017 BKN050 OVC060 07/04 A2988 RMK AO2 PK WND 19033/1020 FIBI (LC)
0334727930242332020010410537+47444-122313FM-15+0132KSEA V0202105N00825015245MN0160935N5+00725+00395101275ADDAA101000095GA1045+005185999GA2075+015245999GA3085+018295999GD12991+0051859GD23991+0152459GD34991+0182959GE19MSL   +99999+99999GF199999999999005181999999MA1101225099645OC101345OD149901691190REMMET13301/04/20 02:53:02 METAR KSEA 041053Z 21016G26KT 10SM SCT017 BKN050 OVC060 07/04 A2989 RMK AO2 PK WND 19033/1020 SLP127 T00720039 (LC)
0407727930242332020010411537+47444-122313FM-15+0132KSEA V0202005N00775036585MN0160935N5+00675+00445101485ADDAA101000095AA206004691AA324009191GA1045+004885999GA2075+036585999GD12991+0048859GD23991+0365859GE19MSL   +99999+99999GF199999999999004881999999KA1060M+00891KA2060N+00671MA1101425099845MD1390359+9999OC101185OD149901441210REMMET15601/04/20 03:53:02 METAR KSEA 041153Z 20015G23KT 10SM SCT016 BKN120 07/04 A2995 RMK AO2 PK WND 21028/1107 SLP148 60018 70036 T00670044 10089 20067 53035 (LC)EQDQ01  00918PRCP24
0265727930242332020010412004+47450-122300FM-12+013799999V0202001N007719999999N016000199+00671+00441101481ADDAA106005031AA224009131GA1999+004501999GE19MSL   +99999+99999GF106991999999004501999999KA1240M+01671KA2240N+00671MA1999999099791MD1310351+9999OD149901181999REMSYN09872793 12466 62015 10067 20044 39979 40148 53035 60051 91153 333 10167 20067 70091 91023 555 90412=
0283727930242332020010412537+47444-122313FM-15+0132KSEA V0202205N007752200059N0160935N5+00675+00285101655ADDAA101000095GA1025+018295999GA2025+036585999GD11991+0182959GD21991+0365859GE19AGL   +99999+99999GF102995999999018291999999MA1101595100015OC101135REMMET10801/04/20 04:53:02 METAR KSEA 041253Z 22015G22KT 10SM FEW060 FEW120 07/03 A3000 RMK AO2 SLP165 T00670028 (LC)EQDD01      0ADE726
0284727930242332020010413537+47444-122313FM-15+0132KSEA V0202105N008252200059N0160935N5+00675+00115101865ADDAA101000095GA1025+018295999GD11991+0182959GE19AGL   +99999+99999GF102995999999018291999999MA1101795100215OC101035OD149901331220REMMET12601/04/20 05:53:02 METAR KSEA 041353Z 21016G20KT 10SM FEW060 07/01 A3006 RMK AO2 PK WND 22026/1309 PRESRR SLP186 T00670011 (TL)EQDD01      0ADE726
0286727930242332020010414537+47444-122313FM-15+0132KSEA V0201605N004152200059N0160935N5+00505+00225102095ADDAA101000095GA1025+018295999GD11991+0182959GE19AGL   +99999+99999GF102995999999018291999999MA1102035100455MD1390609+9999OD149901331220REMMET12201/04/20 06:53:02 METAR KSEA 041453Z 16008KT 10SM FEW060 05/02 A3013 RMK AO2 PK WND 22026/1400 SLP209 T00500022 53060 (TL)EQDD01      0ADE726
0272727930242332020010415537+47444-122313FM-15+0132KSEA V0201705N006252200059N0160935N5+00505+00225102245ADDAA101000095GA1025+005795999GA2045+007325999GD11991+0057959GD22991+0073259GE19AGL   +99999+99999GF104995999999005791999999MA1102175100585REMMET10501/04/20 07:53:02 METAR KSEA 041553Z 17012KT 10SM FEW019 SCT024 05/02 A3017 RMK AO2 SLP224 T00500022 (TL)EQDD01      0ADE726
0284727930242332020010416427+47444-122313FM-16+0132KSEA V0201705N00575007925MN0160935N5+00565+00225999999ADDGA1025+006105999GA2075+007925999GA3075+010365999GD11991+0061059GD23991+0079259GD33991+0103659GE19MSL   +99999+99999GF199999999999006101999999MA1102275100685OC100985REMMET10801/04/20 08:42:02 SPECI KSEA 041642Z 17011G19KT 10SM FEW020 BKN026 BKN034 06/02 A3020 RMK AO2 T00560022 (TL)
0291727930242332020010416537+47444-122313FM-15+0132KSEA V0201905N00625007925MN0160935N5+00565+00225102365ADDAA101000095GA1045+006105999GA2075+007925999GA3075+010065999GD12991+0061059GD23991+0079259GD33991+0100659GE19MSL   +99999+99999GF199999999999006101999999MA1102275100685REMMET11201/04/20 08:53:02 METAR KSEA 041653Z 19012KT 10SM SCT020 BKN026 BKN033 06/02 A3020 RMK AO2 SLP236 T00560022 (TL)
0284727930242332020010417317+47444-122313FM-16+0132KSEA V0202005N00725033535MN0160935N5+00565+00285999999ADDGA1025+005185999GA2045+007015999GA3075+033535999GD11991+0051859GD22991+0070159GD33991+0335359GE19MSL   +99999+99999GF199999999999005181999999MA1102345100755OC101035REMMET10801/04/20 09:31:02 SPECI KSEA 041731Z 20014G20KT 10SM FEW017 SCT023 BKN110 06/03 A3022 RMK AO2 T00560028 (TL)
0341727930242332020010417537+47444-122313FM-15+0132KSEA V0202005N008252200059N0160935N5+00615+00285102485ADDAA101000095GA1025+007015999GA2045+033535999GD11991+0070159GD22991+0335359GE19AGL   +99999+99999GF104995999999007011999999KA1060M+00721KA2060N+00441MA1102405100815MD1190389+9999OC101085REMMET12601/04/20 09:53:02 METAR KSEA 041753Z 20016G21KT 10SM FEW023 SCT110 06/03 A3024 RMK AO2 SLP248 T00610028 10072 20044 51038 (TL)EQDD01      0ADE726
0231727930242332020010418004+47450-122300FM-12+013799999V0202001N008212200019N016000199+00611+00281102481ADDGA1999+008001999GE19MSL   +99999+99999GF104991999999008001999999KA1120M+00891KA2120N+00441MA1999999100761MD1110381+9999OD149901081999REMSYN08672793 32566 42016 10061 20028 30076 40248 51038 91753 333 10089 20044 91021 555 90418=
0284727930242332020010418337+47444-122313FM-16+0132KSEA V0201805N00725006715MN0160935N5+00615+00225999999ADDGA1045+005185999GA2075+006715999GA3075+009455999GD12991+0051859GD23991+0067159GD33991+0094559GE19MSL   +99999+99999GF199999999999005181999999MA1102515100915OC101035REMMET10801/04/20 10:33:02 SPECI KSEA 041833Z 18014G20KT 10SM SCT017 BKN022 BKN031 06/02 A3027 RMK AO2 T00610022 (TL)
0330727930242332020010418537+47444-122313FM-15+0132KSEA V0201805N00515006715MN0160935N5+00565+00285102625ADDAA101000025AU110020015AW1615GA1025+005185999GA2075+006715999GA3075+011585999GD11991+0051859GD23991+0067159GD33991+0115859GE19MSL   +99999+99999GF199999999999005181999999MA1102545100955MW1615REMMET12801/04/20 10:53:02 METAR KSEA 041853Z 18010KT 10SM -RA FEW017 BKN022 BKN038 06/03 A3028 RMK AO2 RAB39 SLP262 P0000 T00560028 (TL)
0276727930242332020010419537+47444-122313FM-15+0132KSEA V0201905N00725006715MN0160935N5+00785+00395102615ADDAA101000395GA1045+005185999GA2075+006715999GD12991+0051859GD23991+0067159GE19MSL   +99999+99999GF199999999999005181999999MA1102545100955OC101035REMMET12001/04/20 11:53:02 METAR KSEA 041953Z 19014G20KT 10SM SCT017 BKN022 08/04 A3028 RMK AO2 RAE19 SLP261 P0001 T00780039 (TL)
0328727930242332020010420537+47444-122313FM-15+0132KSEA V0202005N00675007925MN0160935N5+00725+00445102665ADDAA101000025AA203000391GA1045+005185999GA2075+007925999GA3085+010065999GD12991+0051859GD23991+0079259GD34991+0100659GE19MSL   +99999+99999GF199999999999005181999999MA1102575100985MD1190189+9999REMMET12401/04/20 12:53:02 METAR KSEA 042053Z 20013KT 10SM SCT017 BKN026 OVC033 07/04 A3029 RMK AO2 SLP266 60001 T00720044 51018 (TL)
0343727930242332020010421537+47444-122313FM-15+0132KSEA V0202005N00775008535MN0160935N5+00725+00395102715ADDAA101000395AU110020015AW1615GA1045+004885999GA2075+008535999GA3075+012195999GD12991+0048859GD23991+0085359GD33991+0121959GE19MSL   +99999+99999GF199999999999004881999999MA1102615101015MW1615OC101085REMMET13301/04/20 13:53:02 METAR KSEA 042153Z 20015G21KT 10SM -RA SCT016 BKN028 BKN040 07/04 A3030 RMK AO2 RAB2057 SLP271 P0001 T00720039 (RT)
0243727930242332020010422516+47444-122313FM-16+0132KSEA V0201905N00675009145MN0160935N5+00705+00305999999ADDGA1045+006405999GA2075+009145999GA3075+015245999GD12991+0064059GD23991+0091459GD33991+0152459MA1102685101085OC101035REMMET11501/04/20 14:51:02 SPECI KSEA 042251Z 19013G20KT 10SM SCT021 BKN030 BKN050 07/03 A3032 RMK AO2 RAE43 P0000 FIBI (RT)
0314727930242332020010422537+47444-122313FM-15+0132KSEA V0201905N00625009145MN0160935N5+00725+00335102775ADDAA101000025GA1045+006405999GA2075+009145999GA3075+015245999GD12991+0064059GD23991+0091459GD33991+0152459GE19MSL   +99999+99999GF199999999999006401999999MA1102685101085OC101035REMMET12701/04/20 14:53:02 METAR KSEA 042253Z 19012G20KT 10SM SCT021 BKN030 BKN050 07/03 A3032 RMK AO2 RAE43 SLP277 P0000 T00720033 (RT)
0323727930242332020010423427+47444-122313FM-16+0132KSEA V0209999C00005007625MN0160935N5+00675+00395999999ADDAA101000231AU110020015AW1615GA1045+004885999GA2075+007625999GA3075+015245999GD12991+0048859GD23991+0076259GD33991+0152459GE19MSL   +99999+99999GF199999999999004881999999MA1102745101155MW1615REMMET12101/04/20 15:42:02 SPECI KSEA 042342Z 00000KT 10SM -RA SCT016 BKN025 BKN050 07/04 A3034 RMK AO2 RAB03 P0001 T00670039 (RT)
0423727930242332020010423537+47444-122313FM-15+0132KSEA V0201505N00465007015MN0144845N5+00675+00335102855ADDAA101000395AA206000891AU110020015AW1615GA1045+004885999GA2075+007015999GA3085+015245999GD12991+0048859GD23991+0070159GD34991+0152459GE19MSL   +99999+99999GF199999999999004881999999KA1060M+00781KA2060N+00561MA1102785101185MD1390189+9999MW1615REMMET15101/04/20 15:53:02 METAR KSEA 042353Z 15009KT 9SM -RA SCT016 BKN023 OVC050 07/03 A3035 RMK AO2 RAB03 SLP285 P0001 60003 T00670033 10078 20056 53018 (RT)EQDQ01  00078PRCP06
0240727930242332020010500004+47450-122300FM-12+013799999V0201501N004619999999N014000199+00671+00331102851ADDAA106000831GA1999+004501999GE19MSL   +99999+99999GF108991999999004501999999KA1120M+00781KA2120N+00561MA1999999101131MD1310181+9999MW1611REMSYN09272793 11464 81509 10067 20033 30113 40285 53018 69981 761// 92353 333 10078 20056 555 90500=
0232727930242332020010500516+47444-122313FM-16+0132KSEA V0201805N00675010365MN0160935N5+00605+00305999999ADDGA1045+005495999GA2075+010365999GA3075+033535999GD12991+0054959GD23991+0103659GD33991+0335359MA1102745101155REMMET11201/04/20 16:51:03 SPECI KSEA 050051Z 18013KT 10SM SCT018 BKN034 BKN110 06/03 A3034 RMK AO2 RAE46 P0001 FIBI (RT)
0298727930242332020010500537+47444-122313FM-15+0132KSEA V0201805N00625010365MN0160935N5+00675+00335102825ADDAA101000395GA1045+005495999GA2075+010365999GA3075+033535999GD12991+0054959GD23991+0103659GD33991+0335359GE19MSL   +99999+99999GF199999999999005491999999MA1102745101155REMMET11901/04/20 16:53:01 METAR KSEA 050053Z 18012KT 10SM SCT018 BKN034 BKN110 07/03 A3034 RMK AO2 RAE46 SLP282 P0001 T00670033
0301727930242332020010501537+47444-122313FM-15+0132KSEA V0201705N00575036585MN0160935N5+00675+00285102825ADDAA101000095GA1025+005495999GA2045+010365999GA3075+036585999GD11991+0054959GD22991+0103659GD33991+0365859GD43991+0609619GE19MSL   +99999+99999GF199999999999005491999999MA1102745101155REMMET10701/04/20 17:53:01 METAR KSEA 050153Z 17011KT 10SM FEW018 SCT034 BKN120 07/03 A3034 RMK AO2 SLP282 T00670028
0323727930242332020010502537+47444-122313FM-15+0132KSEA V0201905N00675012195MN0160935N5+00675+00285102825ADDAA101000095AA203000391GA1025+003965999GA2075+012195999GA3075+036585999GD11991+0039659GD23991+0121959GD33991+0365859GE19MSL   +99999+99999GF199999999999003961999999MA1102745101155MD1690039+9999REMMET11901/04/20 18:53:01 METAR KSEA 050253Z 19013KT 10SM FEW013 BKN040 BKN120 07/03 A3034 RMK AO2 SLP282 60001 T00670028 56003
0301727930242332020010503537+47444-122313FM-15+0132KSEA V0201805N00515010365MN0160935N5+00675+00285102825ADDAA101000395GA1075+010365999GA2075+024385999GA3085+036585999GD13991+0103659GD23991+0243859GD34991+0365859GE19MSL   +99999+99999GF199999999999010361999999MA1102745101155REMMET12201/04/20 19:53:01 METAR KSEA 050353Z 18010KT 10SM BKN034 BKN080 OVC120 07/03 A3034 RMK AO2 RAB04E22 SLP282 P0001 T00670028
0325727930242332020010504537+47444-122313FM-15+0132KSEA V0201805N00625011585MN0160935N5+00725+00225102815ADDAA101000025AU110020015AW1615GA1045+008535999GA2075+011585999GA3085+021345999GD12991+0085359GD23991+0115859GD34991+0213459GE19MSL   +99999+99999GF199999999999008531999999MA1102715101125MW1615REMMET12301/04/20 20:53:02 METAR KSEA 050453Z 18012KT 10SM -RA SCT028 BKN038 OVC070 07/02 A3033 RMK AO2 RAB40 SLP281 P0000 T00720022
0392727930242332020010505537+47444-122313FM-15+0132KSEA V0201705N00415014635MN0160935N5+00725+00225102805ADDAA101000025AA206000591GA1045+011585999GA2075+014635999GA3075+021345999GD12991+0115859GD23991+0146359GD33991+0213459GE19MSL   +99999+99999GF199999999999011581999999KA1060M+00721KA2060N+00611MA1102715101125MD1890029+9999REMMET14301/04/20 21:53:02 METAR KSEA 050553Z 17008KT 10SM SCT038 BKN048 BKN070 07/02 A3033 RMK AO2 RAE16 SLP280 P0000 60002 T00720022 10072 20061 58002EQDQ01  00058PRCP06
0228727930242332020010506004+47450-122300FM-12+013799999V0201701N004119999999N016000199+00721+00221102801ADDAA106000531GA1999+012501999GE19MSL   +99999+99999GF106991999999012501999999KA1240M+00891KA2240N+00611MA1999999101061MD1810021+9999REMSYN08672793 12666 61708 10072 20022 30106 40280 58002 69951 90553 333 10089 20061 555 90506=
0248727930242332020010506537+47444-122313FM-15+0132KSEA V0201605N00365019815MN0160935N5+00675+00225102795ADDAA101000095GA1025+011895999GA2075+019815999GD11991+0118959GD23991+0198159GE19MSL   +99999+99999GF199999999999011891999999MA1102715101125REMMET10001/04/20 22:53:02 METAR KSEA 050653Z 16007KT 10SM FEW039 BKN065 07/02 A3033 RMK AO2 SLP279 T00670022
0322727930242332020010507537+47444-122313FM-15+0132KSEA V0201605N00315013115MN0144845N5+00675+00225102725ADDAA101000025AU110020015AW1615GA1045+010675999GA2085+013115999GD12991+0106759GD24991+0131159GE19MSL   +99999+99999GF199999999999010671999999KA1240M+00781KA2240N+00441MA1102645101055MW1615REMMET12501/04/20 23:53:02 METAR KSEA 050753Z 16006KT 9SM -RA SCT035 OVC043 07/02 A3031 RMK AO2 RAB53 SLP272 P0000 T00670022 400780044
0953727930242332020010507596+47444-122313SOD  +0132KSEA V020999999999999999999999999999+99999+99999999999ADDAA124002595AJ100009599999999AL12400095AN1024000095AT1AU16RA  5AX1016246KA1240M+00785KA2240N+00445MG1100714101054OE11240169919099995OE22240134121099995OE33240063099999995REMSOD75324 HR PRECIPITATION (IN): 0.10 SNOW DEPTH (IN):0     24 HR SNOWFALL (IN):0.0  WEATHER(CODE):1  24 HR MAX TEMP (F): 4624 HR MIN TEMP (F): 40AVERAGE STATION PRESSURE:29.740 MINIMUM SEA LEVEL PRESSURE:29.84 TIME OF OCCURRENCE:0011 PEAK WIND SPEED (MPH): 38 PEAK WIND DIR (DEG):190 PEAK WIND TIME (LST):      FASTEST 2MIN SPEED (MPH): 30FASTEST 2MIN DIR (DEG):210 FASTEST 2MIN TIME (LST):     AVERAGE WIND SPEED (MPH):14.1 24 HR AVG TEMP (F): 43DEPART FROM NORMAL:  2  HEATING DEGREE DAYS: 22 COOLING DEGREE DAYS:  0 LATEST DAY MAX TEMP (0700-1900 LST):46  LATEST NIGHT MIN TEMP(1900-0800 LST):41 HOURLY INCREMENTAL PRECIPITATION VALUES (IN):.05 T    0.00 0.00 0.00 0.00 0.00 0.00 0.00 0.00 T    0.01 T    0.01 T    0.01 0.01 0.00 0.00 0.01 T    T    0.00 TEQDR01     17AXW093
0359727930242332020010508537+47444-122313FM-15+0132KSEA V0201805N00365024385MN0160935N5+00675+00225102615ADDAA101000025AA203000021GA1025+010675999GA2045+018295999GA3085+024385999GD11991+0106759GD22991+0182959GD34991+0243859GE19MSL   +99999+99999GF199999999999010671999999MA1102545100955MD1890199+9999REMMET13601/05/20 00:53:02 METAR KSEA 050853Z 18007KT 10SM FEW035 SCT060 OVC080 07/02 A3028 RMK AO2 RAE08 SLP261 P0000 60000 T00670022 58019 (LC)EQDQ01  00008PRCP03
0306727930242332020010509537+47444-122313FM-15+0132KSEA V0201805N00415019815MN0160935N5+00675+00225102575ADDAA101000025GA1025+011585999GA2075+019815999GA3085+024385999GD11991+0115859GD23991+0198159GD34991+0243859GE19MSL   +99999+99999GF199999999999011581999999MA1102475100885REMMET12701/05/20 01:53:02 METAR KSEA 050953Z 18008KT 10SM FEW038 BKN065 OVC080 07/02 A3026 RMK AO2 RAB26E36 SLP257 P0000 T00670022 (LC)
0254727930242332020010510537+47444-122313FM-15+0132KSEA V0201805N00315011585MN0160935N5+00615+00285102545ADDAA101000025AU110020015AW1615GA1085+011585999GD14991+0115859GE19MSL   +99999+99999GF199999999999011581999999MA1102475100885MW1615REMMET11401/05/20 02:53:02 METAR KSEA 051053Z 18006KT 10SM -RA OVC038 06/03 A3026 RMK AO2 RAB29 SLP254 P0000 T00610028 (LC)
0413727930242332020010511537+47444-122313FM-15+0132KSEA V0201605N00365014025MN0160935N5+00615+00335102495ADDAA101000595AA206000591AA324001891AU110020015AW1615GA1025+011285999GA2085+014025999GD11991+0112859GD24991+0140259GE19MSL   +99999+99999GF199999999999011281999999KA1060M+00721KA2060N+00611MA1102405100815MD1890129+9999MW1615REMMET14501/05/20 03:53:02 METAR KSEA 051153Z 16007KT 10SM -RA FEW037 OVC046 06/03 A3024 RMK AO2 SLP249 P0002 60002 70007 T00610033 10072 20061 58012 (LC)EQDQ01  00058PRCP06Q02  00178PRCP24
0257727930242332020010512004+47450-122300FM-12+013799999V0201601N003619999999N016000199+00611+00331102491ADDAA106000531AA224001831GA1999+012501999GE19MSL   +99999+99999GF108991999999012501999999KA1240M+00781KA2240N+00611MA1999999100761MD1810121+9999MW1611REMSYN09872793 11666 81607 10061 20033 30076 40249 58012 69951 761// 91153 333 10078 20061 70018 555 90512=
0248727930242332020010512537+47444-122313FM-15+0132KSEA V0201805N00415009145MN0160935N5+00615+00285102425ADDAA101000395AU110020015AW1615GA1085+009145999GD14991+0091459GE19MSL   +99999+99999GF199999999999009141999999MA1102345100755MW1615REMMET10801/05/20 04:53:02 METAR KSEA 051253Z 18008KT 10SM -RA OVC030 06/03 A3022 RMK AO2 SLP242 P0001 T00610028 (LC)
0265727930242332020010513537+47444-122313FM-15+0132KSEA V0201605N00465010365MN0160935N5+00615+00285102345ADDAA101000025GA1075+010365999GA2085+013115999GD13991+0103659GD24991+0131159GE19MSL   +99999+99999GF199999999999010361999999MA1102275100685REMMET11701/05/20 05:53:02 METAR KSEA 051353Z 16009KT 10SM BKN034 OVC043 06/03 A3020 RMK AO2 RAE18 SLP234 P0000 T00610028 (LZ)
0328727930242332020010514537+47444-122313FM-15+0132KSEA V0201405N00575024385MN0160935N5+00725+00225102255ADDAA101000095AA203000391GA1025+011585999GA2045+021345999GA3085+024385999GD11991+0115859GD22991+0213459GD34991+0243859GE19MSL   +99999+99999GF199999999999011581999999MA1102175100585MD1890239+9999REMMET12401/05/20 06:53:02 METAR KSEA 051453Z 14011KT 10SM FEW038 SCT070 OVC080 07/02 A3017 RMK AO2 SLP225 60001 T00720022 58023 (LZ)
0303727930242332020010515537+47444-122313FM-15+0132KSEA V0201405N00515013725MN0160935N5+00615+00225102135ADDAA101000025AU110020015AW1615GA1025+009145999GA2085+013725999GD11991+0091459GD24991+0137259GE19MSL   +99999+99999GF199999999999009141999999MA1102075100485MW1615OC100825REMMET12401/05/20 07:53:02 METAR KSEA 051553Z 14010G16KT 10SM -RA FEW030 OVC045 06/02 A3014 RMK AO2 RAB27 SLP213 P0000 T00610022 (LZ)
0267727930242332020010516537+47444-122313FM-15+0132KSEA V0201505N00515013415MN0160935N5+00675+00175102115ADDAA101000095GA1075+013415999GA2085+016765999GD13991+0134159GD24991+0167659GE19MSL   +99999+99999GF199999999999013411999999MA1102035100455REMMET11901/05/20 08:53:02 METAR KSEA 051653Z 15010KT 10SM BKN044 OVC055 07/02 A3013 RMK AO2 RAE1555 SLP211 P0000 T00670017 (LZ)
0358727930242332020010517537+47444-122313FM-15+0132KSEA V0201805N00515008535MN0096565N5+00675+00335102125ADDAA101001095AA206001391AU110020015AW1615GA1085+008535999GD14991+0085359GE19MSL   +99999+99999GF199999999999008531999999KA1060M+00721KA2060N+00561MA1102035100455MD1590139+9999MW1615OC100985REMMET14001/05/20 09:53:02 METAR KSEA 051753Z 18010G19KT 6SM -RA OVC028 07/03 A3013 RMK AO2 RAB08 SLP212 P0004 60005 T00670033 10072 20056 55013 (LZ)EQDQ01  00128PRCP06
0260727930242332020010518004+47450-122300FM-12+013799999V0201801N005119999999N009000199+00671+00331102121ADDAA106001031GA1999+008001999GE19MSL   +99999+99999GF108991999999008001999999KA1120M+00721KA2120N+00561MA1999999100391MD1510131+9999MW1611OD149900981999REMSYN09872793 11559 81810 10067 20033 30039 40212 55013 60011 761// 91753 333 10072 20056 91019 555 90518=
0295727930242332020010518537+47444-122313FM-15+0132KSEA V0201905N00825008235MN0048285N5+00675+00395102195ADDAA101001095AU120020015AW1625GA1045+005495999GA2085+008235999GD12991+0054959GD24991+0082359GE19MSL   +99999+99999GF199999999999005491999999MA1102105100515MW1655OC101295REMMET11601/05/20 10:53:02 METAR KSEA 051853Z 19016G25KT 3SM RA SCT018 OVC027 07/04 A3015 RMK AO2 SLP219 P0003 T00670039 (LZ)
0270727930242332020010519537+47444-122313FM-15+0132KSEA V0201905N00935004575MN0160935N5+00675+00395102175ADDAA101000025GA1085+004575999GD14991+0045759GE19MSL   +99999+99999GF199999999999004571999999MA1102105100515OC101345OD149901491200REMMET13101/05/20 11:53:02 METAR KSEA 051953Z 19018G26KT 10SM OVC015 07/04 A3015 RMK AO2 PK WND 20029/1933 RAE20 SLP217 P0001 T00670039 (LZ)
0333727930242332020010520537+47444-122313FM-15+0132KSEA V0202105N00885027435MN0160935N5+00835+00445102275ADDAA101000095AA203001091GA1045+005795999GA2075+027435999GD12991+0057959GD23991+0274359GE19MSL   +99999+99999GF199999999999005791999999MA1102205100615MD1390159+9999OC101445OD149901441210REMMET13801/05/20 12:53:02 METAR KSEA 052053Z 21017G28KT 10SM SCT019 BKN090 08/04 A3018 RMK AO2 PK WND 21028/2047 SLP227 60004 T00830044 53015 (LZ)
0296727930242332020010521537+47444-122313FM-15+0132KSEA V0202105N00825025915MN0160935N5+00835+00285102435ADDAA101000095GA1045+007625999GA2075+025915999GD12991+0076259GD23991+0259159GE19MSL   +99999+99999GF199999999999007621999999MA1102345100755OC101245OD149901491210REMMET12601/05/20 13:53:02 METAR KSEA 052153Z 21016G24KT 10SM SCT025 BKN085 08/03 A3022 RMK AO2 PK WND 21029/2123 SLP243 T00830028 (LZ)
0321727930242332020010522537+47444-122313FM-15+0132KSEA V0202205N007252200059N0160935N5+00835+00285102555ADDAA101000095GA1025+008535999GA2025+027435999GA3045+060965999GD11991+0085359GD21991+0274359GD32991+0609659GE19AGL   +99999+99999GF104995999999008531999999MA1102475100885OC101135REMMET11501/05/20 14:53:02 METAR KSEA 052253Z 22014G22KT 10SM FEW028 FEW090 SCT200 08/03 A3026 RMK AO2 SLP255 T00830028 (TL)EQDD01      0ADE726
0377727930242332020010523537+47444-122313FM-15+0132KSEA V0202205N00885060965MN0160935N5+00785+00175102645ADDAA101000095AA206001091GA1025+008535999GA2045+030485999GA3075+060965999GD11991+0085359GD22991+0304859GD33991+0609659GE19MSL   +99999+99999GF199999999999008531999999KA1060M+00891KA2060N+00611MA1102575100985MD1190379+9999OC101185REMMET13901/05/20 15:53:02 METAR KSEA 052353Z 22017G23KT 10SM FEW028 SCT100 BKN200 08/02 A3029 RMK AO2 SLP264 60004 T00780017 10089 20061 51037 (TL)
0248727930242332020010600004+47450-122300FM-12+013799999V0202201N008819999999N016000199+00781+00171102641ADDAA106001031GA1999+008001999GE19MSL   +99999+99999GF106991999999008001999999KA1120M+00891KA2120N+00611MA1999999100931MD1110371+9999OD149901181999REMSYN09272793 12566 62217 10078 20017 30093 40264 51037 60011 92353 333 10089 20061 91023 555 90600=
0329727930242332020010600537+47444-122313FM-15+0132KSEA V0202205N00825051825MN0160935N5+00725+00225102715ADDAA101000095GA1025+009145999GA2045+030485999GA3075+051825999GD11991+0091459GD22991+0304859GD33991+0518259GE19MSL   +99999+99999GF199999999999009141999999MA1102645101055OC101135OD149901391220REMMET12801/05/20 16:53:01 METAR KSEA 060053Z 22016G22KT 10SM FEW030 SCT100 BKN170 07/02 A3031 RMK AO2 PK WND 22027/0015 SLP271 T00720022
0297727930242332020010601537+47444-122313FM-15+0132KSEA V0202105N00725030485MN0160935N5+00725+00225102785ADDAA101000095GA1025+010065999GA2075+030485999GA3075+045725999GD11991+0100659GD23991+0304859GD33991+0457259GE19MSL   +99999+99999GF199999999999010061999999MA1102715101125OC101085REMMET11001/05/20 17:53:01 METAR KSEA 060153Z 21014G21KT 10SM FEW033 BKN100 BKN150 07/02 A3033 RMK AO2 SLP278 T00720022
0295727930242332020010602487+47444-122313FM-16+0132KSEA V0202005N00825006715MN0160935N5+00605+00305999999ADDAA101000021GA1075+006715999GA2075+021345999GA3075+027435999GD13991+0067159GD23991+0213459GD33991+0274359GE19MSL   +99999+99999GF199999999999006711999999MA1102785101185OC101135REMMET10801/05/20 18:48:01 SPECI KSEA 060248Z 20016G22KT 10SM BKN022 BKN070 BKN090 06/03 A3035 RMK AO2 RAB36E47 P0000
0384727930242332020010602537+47444-122313FM-15+0132KSEA V0202105N00825006715MN0160935N5+00675+00285102865ADDAA101000025AA203000021GA1075+006715999GA2075+021345999GA3075+027435999GD13991+0067159GD23991+0213459GD33991+0274359GE19MSL   +99999+99999GF199999999999006711999999MA1102785101185MD1190159+9999OC101245REMMET13701/05/20 18:53:01 METAR KSEA 060253Z 21016G24KT 10SM BKN022 BKN070 BKN090 07/03 A3035 RMK AO2 RAB36E47 SLP286 P0000 60000 T00670028 51015EQDQ01  00002PRCP03Q02  00008PRCP03
0230727930242332020010603127+47444-122313FM-16+0132KSEA V0201905N00725036585MN0160935N5+00615+00285999999ADDGA1045+006715999GA2075+036585999GD12991+0067159GD23991+0365859GE19MSL   +99999+99999GF199999999999006711999999MA1102785101185REMMET09301/05/20 19:12:01 SPECI KSEA 060312Z 19014KT 10SM SCT022 BKN120 06/03 A3035 RMK AO2 T00610028
0259727930242332020010603516+47444-122313FM-16+0132KSEA V0201905N00575007325MN0160935N5+00605+00305999999ADDAU110020015AW1615GA1025+005495999GA2075+007325999GA3085+036585999GD11991+0054959GD23991+0073259GD34991+0365859MA1102785101185MW1615REMMET11601/05/20 19:51:03 SPECI KSEA 060351Z 19011KT 10SM -RA FEW018 BKN024 OVC120 06/03 A3035 RMK AO2 RAB49 P0000 FIBI (TL)
0325727930242332020010603537+47444-122313FM-15+0132KSEA V0201905N00675007325MN0160935N5+00615+00335102885ADDAA101000025AU110020015AW1615GA1025+005495999GA2075+007325999GA3085+036585999GD11991+0054959GD23991+0073259GD34991+0365859GE19MSL   +99999+99999GF199999999999005491999999MA1102785101185MW1615REMMET12301/05/20 19:53:01 METAR KSEA 060353Z 19013KT 10SM -RA FEW018 BKN024 OVC120 06/03 A3035 RMK AO2 RAB49 SLP288 P0000 T00610033
0266727930242332020010604537+47444-122313FM-15+0132KSEA V0201805N00775007325MN0160935N5+00565+00335102885ADDAA101000395GA1075+007325999GA2085+008845999GD13991+0073259GD24991+0088459GE19MSL   +99999+99999GF199999999999007321999999MA1102785101185REMMET11801/05/20 20:53:02 METAR KSEA 060453Z 18015KT 10SM BKN024 OVC029 06/03 A3035 RMK AO2 RAE00B32E45 SLP288 P0001 T00560033
0368727930242332020010605537+47444-122313FM-15+0132KSEA V0201905N00775007625MN0160935N5+00615+00335102905ADDAA101000025AA206000391GA1075+007625999GA2085+010365999GD13991+0076259GD24991+0103659GE19MSL   +99999+99999GF199999999999007621999999KA1060M+00781KA2060N+00561MA1102815101225MD1390029+9999OC101035REMMET14201/05/20 21:53:02 METAR KSEA 060553Z 19015G20KT 10SM BKN025 OVC034 06/03 A3036 RMK AO2 RAB02E20 SLP290 P0000 60001 T00610033 10078 20056 53002EQDQ01  00028PRCP06
0248727930242332020010606004+47450-122300FM-12+013799999V0201901N007719999999N016000199+00611+00331102901ADDAA106000331GA1999+008001999GE19MSL   +99999+99999GF108991999999008001999999KA1240M+00781KA2240N+00561MA1999999101161MD1310021+9999OD149901031999REMSYN09272793 12566 81915 10061 20033 30116 40290 53002 69931 90553 333 10078 20056 91020 555 90606=
0294727930242332020010606267+47444-122313FM-16+0132KSEA V0202005N00725009145MN0160935N5+00615+00335999999ADDAA101000021GA1045+007015999GA2075+009145999GA3085+024385999GD12991+0070159GD23991+0091459GD34991+0243859GE19MSL   +99999+99999GF199999999999007011999999MA1102785101185REMMET11501/05/20 22:26:02 SPECI KSEA 060626Z 20014KT 10SM SCT023 BKN030 OVC080 06/03 A3035 RMK AO2 RAB02E13 P0000 T00610033
0330727930242332020010606537+47444-122313FM-15+0132KSEA V0201905N00725009145MN0144845N5+00565+00395102855ADDAA101000395AU110020015AW1615GA1025+005795999GA2075+009145999GA3085+013115999GD11991+0057959GD23991+0091459GD34991+0131159GE19MSL   +99999+99999GF199999999999005791999999MA1102785101185MW1615REMMET12801/05/20 22:53:02 METAR KSEA 060653Z 19014KT 9SM -RA FEW019 BKN030 OVC043 06/04 A3035 RMK AO2 RAB02E13B45 SLP285 P0001 T00560039
0302727930242332020010607487+47444-122313FM-16+0132KSEA V0201805N00575007015MN0160935N5+00605+00305999999ADDAA101000231AU110020015AW1615GA1075+007015999GA2075+008535999GA3085+011585999GD13991+0070159GD23991+0085359GD34991+0115859GE19MSL   +99999+99999GF199999999999007011999999MA1102715101125MW1615REMMET10001/05/20 23:48:02 SPECI KSEA 060748Z 18011KT 10SM -RA BKN023 BKN028 OVC038 06/03 A3033 RMK AO2 P0001
0366727930242332020010607537+47444-122313FM-15+0132KSEA V0201805N00575007015MN0160935N5+00565+00335102795ADDAA101000395AU110020015AW1615GA1025+005495999GA2075+007015999GA3085+011585999GD11991+0054959GD23991+0070159GD34991+0115859GE19MSL   +99999+99999GF199999999999005491999999KA1240M+00891KA2240N+00561MA1102715101125MW1615OC100985REMMET13001/05/20 23:53:02 METAR KSEA 060753Z 18011G19KT 10SM -RA FEW018 BKN023 OVC038 06/03 A3033 RMK AO2 SLP279 P0001 T00560033 400890056
0956727930242332020010607596+47444-122313SOD  +0132KSEA V020999999999999999999999999999+99999+99999999999ADDAA124003695AJ100009599999999AL12400095AN1024000095AT1AU16RA  5AX1016246KA1240M+00895KA2240N+00565MG1100854102104OE11240147520099995OE22240116220099995OE33240063999999995REMSOD75624 HR PRECIPITATION (IN): 0.14 SNOW DEPTH (IN):0     24 HR SNOWFALL (IN):0.0  WEATHER(CODE):1  24 HR MAX TEMP (F): 4824 HR MIN TEMP (F): 42AVERAGE STATION PRESSURE:29.780 MINIMUM SEA LEVEL PRESSURE:30.15 TIME OF OCCURRENCE:1015 PEAK WIND SPEED (MPH): 33 PEAK WIND DIR (DEG):200 PEAK WIND TIME (LST):      FASTEST 2MIN SPEED (MPH): 26FASTEST 2MIN DIR (DEG):200 FASTEST 2MIN TIME (LST):     AVERAGE WIND SPEED (MPH):14.3 24 HR AVG TEMP (F): 45DEPART FROM NORMAL:  4  HEATING DEGREE DAYS: 20 COOLING DEGREE DAYS:  0 LATEST DAY MAX TEMP (0700-1900 LST):48  LATEST NIGHT MIN TEMP(1900-0800 LST):42 HOURLY INCREMENTAL PRECIPITATION VALUES (IN):    T    T    0.02 0.01 T    0.00 T    0.00 0.04 0.04 T    0.00 0.00 0.00 0.00 0.00 0.00 T    T    0.01 T    0.01 0.01EQDR01     17AXW093
0341727930242332020010608537+47444-122313FM-15+0132KSEA V0201805N00465006405MN0112655N5+00505+00335102685ADDAA101000895AA203001391AU110020015AW1615GA1075+006405999GA2085+009145999GD13991+0064059GD24991+0091459GE19MSL   +99999+99999GF199999999999006401999999MA1102615101015MD1890179+9999MW1615REMMET12601/06/20 00:53:02 METAR KSEA 060853Z 18009KT 7SM -RA BKN021 OVC030 05/03 A3030 RMK AO2 SLP268 P0003 60005 T00500033 58017 (LC)EQDQ01  00128PRCP03
0285727930242332020010609537+47444-122313FM-15+0132KSEA V0201705N00415007925MN0112655N5+00505+00335102545ADDAA101001095AU110020015AW1615GA1045+005495999GA2085+007925999GD12991+0054959GD24991+0079259GE19MSL   +99999+99999GF199999999999005491999999MA1102475100885MW1615REMMET11401/06/20 01:53:02 METAR KSEA 060953Z 17008KT 7SM -RA SCT018 OVC026 05/03 A3026 RMK AO2 SLP254 P0004 T00500033 (LC)
0247727930242332020010610537+47444-122313FM-15+0132KSEA V0201505N00315007015MN0112655N5+00505+00395102475ADDAA101000595AU110020015AW1615GA1085+007015999GD14991+0070159GE19MSL   +99999+99999GF199999999999007011999999MA1102375100785MW1615REMMET10701/06/20 02:53:02 METAR KSEA 061053Z 15006KT 7SM -RA OVC023 05/04 A3023 RMK AO2 SLP247 P0002 T00500039 (LC)
0354727930242332020010611537+47444-122313FM-15+0132KSEA V0201605N00465006405MN0160935N5+00565+00395102345ADDAA101000025AA206002891AA324005391GA1085+006405999GD14991+0064059GE19MSL   +99999+99999GF199999999999006401999999KA1060M+00611KA2060N+00501MA1102275100685MD1690339+9999REMMET14001/06/20 03:53:02 METAR KSEA 061153Z 16009KT 10SM OVC021 06/04 A3020 RMK AO2 RAE11 SLP234 P0000 60011 70021 T00560039 10061 20050 56033 (LC)EQDQ01  00278PRCP06Q02  00538PRCP24
0245727930242332020010612004+47450-122300FM-12+013799999V0201601N004619999999N016000199+00561+00391102341ADDAA106003031AA224005331GA1999+008001999GE19MSL   +99999+99999GF108991999999008001999999KA1240M+00891KA2240N+00501MA1999999100631MD1610331+9999REMSYN09272793 12566 81609 10056 20039 30063 40234 56033 60031 91153 333 10089 20050 70053 555 90612=
0313727930242332020010612537+47444-122313FM-15+0132KSEA V0202005N00515006105MN0080475N5+00615+00505102265ADDAA101001095AU110020015AU200001015AW1105AW2615GA1075+006105999GA2085+009145999GD13991+0061059GD24991+0091459GE19MSL   +99999+99999GF199999999999006101999999MA1102175100585MW1615REMMET12501/06/20 04:53:02 METAR KSEA 061253Z 20010KT 5SM -RA BR BKN020 OVC030 06/05 A3017 RMK AO2 RAB1157 SLP226 P0004 T00610050 (LC)
0316727930242332020010613537+47444-122313FM-15+0132KSEA V0201805N00725007015MN0096565N5+00675+00505102155ADDAA101000595AU110020015AU200001015AW1105AW2615GA1045+004885999GA2085+007015999GD12991+0048859GD24991+0070159GE19MSL   +99999+99999GF199999999999004881999999MA1102075100485MW1615OC101185REMMET12001/06/20 05:53:02 METAR KSEA 061353Z 18014G23KT 6SM -RA BR SCT016 OVC023 07/05 A3014 RMK AO2 SLP215 P0002 T00670050 (LC)
0442727930242332020010614537+47444-122313FM-15+0132KSEA V0201805N00675005795MN0096565N5+00725+00565102045ADDAA101000895AA203002391AU110020015AU200001015AW1105AW2615GA1025+003665999GA2075+005795999GA3085+019815999GD11991+0036659GD23991+0057959GD34991+0198159GE19MSL   +99999+99999GF199999999999003661999999MA1101965100385MD1890309+9999MW1615OC101245OD149901331160REMMET15701/06/20 06:53:02 METAR KSEA 061453Z 18013G24KT 6SM -RA BR FEW012 BKN019 OVC065 07/06 A3011 RMK AO2 PK WND 16026/1425 SLP204 P0003 60009 T00720056 58030 (JC)EQDQ01  00228PRCP03
0348727930242332020010615537+47444-122313FM-15+0132KSEA V0201605N00885005185MN0080475N5+00785+00615101975ADDAA101000895AU110020015AU200001015AW1105AW2615GA1075+005185999GA2085+007625999GD13991+0051859GD24991+0076259GE19MSL   +99999+99999GF199999999999005181999999MA1101905100315MW1615OC101295OD149901391170REMMET13801/06/20 07:53:02 METAR KSEA 061553Z 16017G25KT 5SM -RA BR BKN017 OVC025 08/06 A3009 RMK AO2 PK WND 17027/1515 SLP197 P0003 T00780061 (JC)
0337727930242332020010616537+47444-122313FM-15+0132KSEA V0201805N00885007015MN0096565N5+00835+00675101965ADDAA101001395AU110020015AU200001015AW1105AW2615GA1045+003665999GA2085+007015999GD12991+0036659GD24991+0070159GE19MSL   +99999+99999GF199999999999003661999999MA1101905100315MW1615OD149901491180REMMET13501/06/20 08:53:02 METAR KSEA 061653Z 18017KT 6SM -RA BR SCT012 OVC023 08/07 A3009 RMK AO2 PK WND 18029/1607 SLP196 P0005 T00830067 (JC)
0379727930242332020010617377+47444-122313FM-16+0132KSEA V0201905N00935003665MN0080475N5+00835+00675999999ADDAA101001031AU110020015AU200001015AW1105AW2615GA1025+002445999GA2075+003665999GA3085+007015999GD11991+0024459GD23991+0036659GD34991+0070159GE19MSL   +99999+99999GF199999999999002441999999MA1101905100315MW1615OC101445OD149901491180REMMET13801/06/20 09:37:02 SPECI KSEA 061737Z 19018G28KT 5SM -RA BR FEW008 BKN012 OVC023 08/07 A3009 RMK AO2 PK WND 18029/1726 P0004 T00830067 (JC)
0456727930242332020010617537+47444-122313FM-15+0132KSEA V0201805N00885003055MN0080475N5+00835+00725101965ADDAA101001595AA206005891AU110020015AU200001015AW1105AW2615GA1025+002135999GA2075+003055999GA3085+007015999GD11991+0021359GD23991+0030559GD34991+0070159GE19MSL   +99999+99999GF199999999999002131999999KA1060M+00891MA1101905100315MD1690079+9999MW1615OD149901491180REMMET16601/06/20 09:53:02 METAR KSEA 061753Z 18017KT 5SM -RA BR FEW007 BKN010 OVC023 08/07 A3009 RMK AO2 PK WND 18029/1726 SLP196 P0006 60023 T00830072 10089 20056 56007 (JC)EQDQ01  00588PRCP06
0246727930242332020010618004+47450-122300FM-12+013799999V0201801N008819999999N008000199+00831+00721101961ADDAA106006031GA1999+002501999GE19MSL   +99999+99999GF108991999999002501999999KA1120M+00891KA2120N+00561MA1999999100261MD1610071+9999MW1611REMSYN09872793 11358 81817 10083 20072 30026 40196 56007 60061 761// 91753 333 10089 20056 96010 555 90618=
0386727930242332020010618537+47444-122313FM-15+0132KSEA V0201805N00825003355MN0080475N5+00895+00785102005ADDAA101002395AU110020015AU200001015AW1105AW2615GA1025+002445999GA2075+003355999GA3085+007015999GD11991+0024459GD23991+0033559GD34991+0070159GE19MSL   +99999+99999GF199999999999002441999999MA1101935100355MW1615OC101295OD149901491180REMMET14501/06/20 10:53:02 METAR KSEA 061853Z 18016G25KT 5SM -RA BR FEW008 BKN011 OVC023 09/08 A3010 RMK AO2 PK WND 18029/1830 SLP200 P0007 T00890078 (JC)
0309727930242332020010619397+47444-122313FM-16+0132KSEA V0201805N00935002445MN0080475N5+00945+00835999999ADDAA101002531AU110020015AU200001015AW1105AW2615GA1075+002445999GA2085+003965999GD13991+0024459GD24991+0039659GE19MSL   +99999+99999GF199999999999002441999999MA1101865100285MW1615OC101185REMMET11301/06/20 11:39:02 SPECI KSEA 061939Z 18018G23KT 5SM -RA BR BKN008 OVC013 09/08 A3008 RMK AO2 P0010 T00940083 (JC)
0375727930242332020010619537+47444-122313FM-15+0132KSEA V0201805N01035002445MN0096565N5+01005+00835101935ADDAA101002595AU110020015AU200001015AW1105AW2615GA1075+002445999GA2075+004575999GA3085+007015999GD13991+0024459GD23991+0045759GD34991+0070159GE19MSL   +99999+99999GF199999999999002441999999MA1101865100285MW1615OD149901331180REMMET14201/06/20 11:53:02 METAR KSEA 061953Z 18020KT 6SM -RA BR BKN008 BKN015 OVC023 10/08 A3008 RMK AO2 PK WND 18026/1942 SLP193 P0011 T01000083 (JC)
0404727930242332020010620537+47444-122313FM-15+0132KSEA V0201905N00935002445MN0096565N5+01005+00835101915ADDAA101000895AA203005691AU110020015AU200001015AW1105AW2615GA1075+002445999GA2085+003665999GD13991+0024459GD24991+0036659GE19MSL   +99999+99999GF199999999999002441999999MA1101835100255MD1890069+9999MW1615OC101345OD149901391190REMMET15001/06/20 12:53:02 METAR KSEA 062053Z 19018G26KT 6SM -RA BR BKN008 OVC012 10/08 A3007 RMK AO2 PK WND 19027/2003 SLP191 P0004 60022 T01000083 58006 (JC)EQDQ01  00558PRCP03
0313727930242332020010621447+47444-122313FM-16+0132KSEA V0201905N00825002445MN0040235N5+01005+00835999999ADDAA101000731AU110020015AU200001015AW1105AW2615GA1075+002445999GA2085+004575999GD13991+0024459GD24991+0045759GE19MSL   +99999+99999GF199999999999002441999999MA1101835100255MW1615OC101185REMMET11701/06/20 13:44:02 SPECI KSEA 062144Z 19016G23KT 2 1/2SM -RA BR BKN008 OVC015 10/08 A3007 RMK AO2 P0003 T01000083 (JC)
0309727930242332020010621537+47444-122313FM-15+0132KSEA V0201905N00725002445MN0040235N5+01005+00895101915ADDAA101001095AU110020015AU200001015AW1105AW2615GA1075+002445999GA2085+004575999GD13991+0024459GD24991+0045759GE19MSL   +99999+99999GF199999999999002441999999MA1101835100255MW1615REMMET12101/06/20 13:53:02 METAR KSEA 062153Z 19014KT 2 1/2SM -RA BR BKN008 OVC015 10/09 A3007 RMK AO2 SLP191 P0004 T01000089 (JC)
0320727930242332020010622537+47444-122313FM-15+0132KSEA V0201905N00775002135MN0040235N5+01005+00895101955ADDAA101001095AU110020015AU200001015AW1105AW2615GA1075+002135999GA2085+004575999GD13991+0021359GD24991+0045759GE19MSL   +99999+99999GF199999999999002131999999MA1101865100285MW1615OC101035REMMET12401/06/20 14:53:02 METAR KSEA 062253Z 19015G20KT 2 1/2SM -RA BR BKN007 OVC015 10/09 A3008 RMK AO2 SLP195 P0004 T01000089 (RS)
0403727930242332020010623537+47444-122313FM-15+0132KSEA V0201905N00885001835MN0040235N5+01005+00895101955ADDAA101000895AA206008491AU110020015AU200001015AW1105AW2615GA1075+001835999GA2085+003965999GD13991+0018359GD24991+0039659GE19MSL   +99999+99999GF199999999999001831999999KA1060M+01001KA2060N+00831MA1101865100285MD1190049+9999MW1615REMMET14501/06/20 15:53:02 METAR KSEA 062353Z 19017KT 2 1/2SM -RA BR BKN006 OVC013 10/09 A3008 RMK AO2 SLP195 P0003 60033 T01000089 10100 20083 51004 (RS)EQDQ01  00838PRCP06
0246727930242332020010700004+47450-122300FM-12+013799999V0201901N008819999999N004000199+01001+00891101951ADDAA106008031GA1999+001501999GE19MSL   +99999+99999GF108991999999001501999999KA1120M+01001KA2120N+00501MA1999999100231MD1110041+9999MW1611REMSYN09872793 11240 81917 10100 20089 30023 40195 51004 60081 761// 92353 333 10100 20050 96010 555 90700=
0315727930242332020010700537+47444-122313FM-15+0132KSEA V0201905N00825002445MN0040235N5+01005+00945101965ADDAA101001395AU110020015AU200001015AW1105AW2615GA1075+002445999GA2085+004275999GD13991+0024459GD24991+0042759GE19MSL   +99999+99999GF199999999999002441999999MA1101905100315MW1615OC101295REMMET11901/06/20 16:53:01 METAR KSEA 070053Z 19016G25KT 2 1/2SM -RA BR BKN008 OVC014 10/09 A3009 RMK AO2 SLP196 P0004 T01000094
0277727930242332020010701537+47444-122313FM-15+0132KSEA V0201905N00825001525MN0040235N5+01005+00945101975ADDAA101001595AU110020015AU200001015AW1105AW2615GA1085+001525999GD14991+0015259GE19MSL   +99999+99999GF199999999999001521999999MA1101905100315MW1615OC101245REMMET11201/06/20 17:53:01 METAR KSEA 070153Z 19016G24KT 2 1/2SM -RA BR OVC005 10/09 A3009 RMK AO2 SLP197 P0006 T01000094
0298727930242332020010702307+47444-122313FM-16+0132KSEA V0201905N00825001525MN0048285N5+01065+00945999999ADDAA101000731AU110020015AU200001015AW1105AW2615GA1085+001525999GD14991+0015259GE19MSL   +99999+99999GF199999999999001521999999MA1101905100315MW1615OC101185OD149901391190REMMET11901/06/20 18:30:01 SPECI KSEA 070230Z 19016G23KT 3SM -RA BR OVC005 11/09 A3009 RMK AO2 PK WND 19027/0206 P0003 T01060094
0399727930242332020010702537+47444-122313FM-15+0132KSEA V0202005N00885001835MN0080475N5+01065+00945101965ADDAA101001095AA203003891AU110020015AU200001015AW1105AW2615GA1075+001835999GA2085+003665999GD13991+0018359GD24991+0036659GE19MSL   +99999+99999GF199999999999001831999999MA1101905100315MD1090029+9999MW1615OC101185OD149901391190REMMET14501/06/20 18:53:01 METAR KSEA 070253Z 20017G23KT 5SM -RA BR BKN006 OVC012 11/09 A3009 RMK AO2 PK WND 19027/0206 SLP196 P0005 60015 T01060094 50002EQDQ01  00388PRCP03
0262727930242332020010703537+47444-122313FM-15+0132KSEA V0201905N00725002135MN0096565N5+01065+00945101985ADDAA101001095AU110020015AU200001015AW1105AW2615GA1085+002135999GD14991+0021359GE19MSL   +99999+99999GF199999999999002131999999MA1101905100315MW1615REMMET10501/06/20 19:53:01 METAR KSEA 070353Z 19014KT 6SM -RA BR OVC007 11/09 A3009 RMK AO2 SLP198 P0003 T01060094
0311727930242332020010704537+47444-122313FM-15+0132KSEA V0201905N00725001525MN0064375N5+01005+00895101965ADDAA101002395AU110020015AU200001015AW1105AW2615GA1075+001525999GA2085+003055999GD13991+0015259GD24991+0030559GE19MSL   +99999+99999GF199999999999001521999999MA1101905100315MW1615OC101035REMMET11501/06/20 20:53:02 METAR KSEA 070453Z 19014G20KT 4SM -RA BR BKN005 OVC010 10/09 A3009 RMK AO2 SLP196 P0009 T01000089
0211727930242332020010705516+47444-122313FM-16+0132KSEA V0201905N00825001525MN0040235N5+01005+00905999999ADDAU110020015AU200001015AW1105AW2615GA1085+001525999GD14991+0015259MA1101865100285MW1615OC101245REMMET10501/06/20 21:51:03 SPECI KSEA 070551Z 19016G24KT 2 1/2SM -RA BR OVC005 10/09 A3008 RMK AO2 P0008 FIBI (RS)
0367727930242332020010705537+47444-122313FM-15+0132KSEA V0201805N00935001525MN0048285N5+01005+00895101925ADDAA101002095AA206008991AU110020015AU200001015AW1105AW2615GA1085+001525999GD14991+0015259GE19MSL   +99999+99999GF199999999999001521999999KA1060M+01061KA2060N+01001MA1101865100285MD1890049+9999MW1615OC101245REMMET13201/06/20 21:53:02 METAR KSEA 070553Z 18018G24KT 3SM -RA BR OVC005 10/09 A3008 RMK AO2 SLP192 P0008 60035 T01000089 10106 20100 58004EQDQ01  00888PRCP06
0266727930242332020010706004+47450-122300FM-12+013799999V0201801N009319999999N004800199+01001+00891101921ADDAA106009031GA1999+001501999GE19MSL   +99999+99999GF108991999999001501999999KA1240M+01061KA2240N+00501MA1999999100231MD1810041+9999MW1611OD149901241999REMSYN10472793 11248 81818 10100 20089 30023 40192 58004 60091 761// 90553 333 10106 20050 91024 96010 555 90706=
0252727930242332020010706516+47444-122313FM-16+0132KSEA V0201805N00675004885MN0096565N5+01005+00905999999ADDAU110020015AU200001015AW1105AW2615GA1045+002445999GA2085+004885999GD12991+0024459GD24991+0048859MA1101835100255MW1615REMMET12301/06/20 22:51:03 SPECI KSEA 070651Z 18013KT 6SM -RA BR SCT008 OVC016 10/09 A3007 RMK AO2 PK WND 19027/0557 P0007 FIBI (LC)
0332727930242332020010706537+47444-122313FM-15+0132KSEA V0201805N00675002445MN0096565N5+01005+00895101915ADDAA101001895AU110020015AU200001015AW1105AW2615GA1075+002445999GA2085+004885999GD13991+0024459GD24991+0048859GE19MSL   +99999+99999GF199999999999002441999999MA1101835100255MW1615OD149901391190REMMET13001/06/20 22:53:02 METAR KSEA 070653Z 18013KT 6SM -RA BR BKN008 OVC016 10/09 A3007 RMK AO2 PK WND 19027/0557 SLP191 P0007 T01000089
0284727930242332020010707177+47444-122313FM-16+0132KSEA V0201805N00675004885MN0112655N5+01005+00895999999ADDAA101001031AU110020015AW1615GA1045+002445999GA2085+004885999GD12991+0024459GD24991+0048859GE19MSL   +99999+99999GF199999999999002441999999MA1101835100255MW1615OC101035REMMET10501/06/20 23:17:02 SPECI KSEA 070717Z 18013G20KT 7SM -RA SCT008 OVC016 10/09 A3007 RMK AO2 P0004 T01000089
0385727930242332020010707537+47444-122313FM-15+0132KSEA V0201805N00725007015MN0096565N5+01005+00895101845ADDAA101002895AU110020015AU200001015AW1105AW2615GA1025+003665999GA2075+007015999GA3085+008845999GD11991+0036659GD23991+0070159GD34991+0088459GE19MSL   +99999+99999GF199999999999003661999999KA1240M+01061KA2240N+00501MA1101765100185MW1615OC101135REMMET13201/06/20 23:53:02 METAR KSEA 070753Z 18014G22KT 6SM -RA BR FEW012 BKN023 OVC029 10/09 A3005 RMK AO2 SLP184 P0010 T01000089 401060050
0976727930242332020010707596+47444-122313SOD  +0132KSEA V020999999999999999999999999999+99999+99999999999ADDAA124030295AJ100009599999999AL12400095AN1024000095AT1AU16RA  5AT2AU13BR  5AX1015245KA1240M+01065KA2240N+00505MG1100364101834OE11240147518099995OE22240116218099995OE33240073399999995REMSOD78324 HR PRECIPITATION (IN): 1.19 SNOW DEPTH (IN):0     24 HR SNOWFALL (IN):0.0  WEATHER(CODE):1  24 HR MAX TEMP (F): 5124 HR MIN TEMP (F): 41AVERAGE STATION PRESSURE:29.635 MINIMUM SEA LEVEL PRESSURE:30.07 TIME OF OCCURRENCE:2359 PEAK WIND SPEED (MPH): 33 PEAK WIND DIR (DEG):180 PEAK WIND TIME (LST):      FASTEST 2MIN SPEED (MPH): 26FASTEST 2MIN DIR (DEG):180 FASTEST 2MIN TIME (LST):     AVERAGE WIND SPEED (MPH):16.4 24 HR AVG TEMP (F): 46DEPART FROM NORMAL:  5  SKY COVER SR-SS (TENTHS): 1HEATING DEGREE DAYS: 19 COOLING DEGREE DAYS:  0 LATEST DAY MAX TEMP (0700-1900 LST):51  LATEST NIGHT MIN TEMP(1900-0800 LST):41 HOURLY INCREMENTAL PRECIPITATION VALUES (IN):.03 0.04 0.02 T    0.04 0.02 0.03 0.03 0.05 0.06 0.09 0.10 0.03 0.04 0.04 0.03 0.05 0.06 0.04 0.04 0.09 0.08 0.07 0.11
0322727930242332020010708537+47444-122313FM-15+0132KSEA V0201705N00885007325MN0096565N5+01005+00835101745ADDAA101002395AA203006991AU120020015AU200001015AW1105AW2625GA1085+007325999GD14991+0073259GE19MSL   +99999+99999GF199999999999007321999999MA1101665100085MD1890189+9999MW1655REMMET12101/07/20 00:53:02 METAR KSEA 070853Z 17017KT 6SM RA BR OVC024 10/08 A3002 RMK AO2 SLP174 P0010 60027 T01000083 58018 (LC)EQDQ01  00688PRCP03
